:020000040000FA
:1000000048250020490400005104000015040000A8
:1000100055040000570400005904000000000000CF
:100020000000000000000000000000005B04000071
:100030005D040000000000005F0400006104000097
:10004000F908000063040000C90F0000510C000013
:100050005D0C0000630400008D050000890A0000AB
:10006000650F0000790F00008D0F0000450A0000A9
:1000700063040000F509000063040000630400004D
:10008000E50F0000550A0000390900008105000055
:10009000750C0000790C0000890C0000990C000020
:1000A000A90C0000B90C0000A10F0000B50F000062
:1000B00009090000790800000000000000000000AD
:1000C000630400001909000029090000690C000000
:1000D000790A00005D0700006304000000000000D2
:1000E0000000000000000000000000000000000010
:1000F0000000000000000000000000000000000000
:1001000000000000000000000000000000000000EF
:1001100000000000000000000000000000000000DF
:10040000DFF80CD000F08AF800480047251C0000F7
:1004100048250020094B1EF0040F1CBFEFF3098094
:100420001847EFF308800649064A884201D89042EF
:1004300002D88D464FF00000184700000107000069
:100440004825002048050020064880470648004708
:10045000FEE7FEE7FEE7FEE7FEE7FEE7FEE7FEE774
:10046000FEE7FEE7C90C00000104000000487047E9
:10047000C435000040EA01039B0703D009E008C926
:10048000121F08C0042AFAD203E011F8013B00F859
:10049000013B521EF9D27047421C10F8011B002983
:1004A000FBD1801A7047034611F8012B00F8012B8D
:1004B000002AF9D1184670472DE9F05F0546002063
:1004C00092469B4688460646814640241BE02846C5
:1004D00041464746224600F042F853465A46C01A63
:1004E000914110D311461846224600F029F82D1AE2
:1004F00067EB01084F4622460120002100F020F85A
:1005000017EB00094E41201EA4F10104DFDC484630
:1005100031462A464346BDE8F09F0000064C074D91
:1005200006E0E06840F0010394E8070098471034C3
:10053000AC42F6D3FFF768FFC8350000E83500008D
:10054000202A04DB203A00FA02F100207047914093
:10055000C2F1200320FA03F3194390407047202A88
:1005600004DB203A21FA02F00021704721FA02F35D
:10057000D040C2F120029140084319467047000064
:100580000148006800470000680000202DE9F0479E
:1005900000268CB0DFF86091B0464FF480750124DE
:1005A00037460696284601F0D9FF38B1D9F804033A
:1005B000204203D0284601F0C7FF26432D1D6400CA
:1005C0007F1CADB2082FEDD34FF4BE74204601F06E
:1005D000C5FF48B1204601F0B7FF46F0004606AA25
:1005E0000121002001F09CFF444D16F0FF0F15D0B3
:1005F0000127002437420DD009EB8401D1F8100502
:10060000D1F81015C0F3042055F82420C1F301419E
:1006100002B190477F00641C082CEBD3002E67DAF0
:100620004FF0FF30CDE9088000263446281910F835
:10063000507F90F9000027F0C008401C44D009A961
:10064000404601F087FB58B34FEA9719404601F046
:1006500053F855F820701FB1B9F1030F03D00FE024
:10066000B9F1030F30D108A84FEAD80208F0070308
:10067000815C4FF0010C0CFA03FC41EA0C0181543F
:100680004FF0A04101EB8800D0F8000706A9C0F3A5
:10069000014A404601F05EFB18B1BAF1020F03D0E7
:1006A00012E0BAF1030F0FD1B9F1030F08D1BAF17B
:1006B000020F1BD00221404601F012FF761CF6B259
:1006C00017B149464046B847641C042CAED3002EEF
:1006D0000ED06A460121002001F022FF0699009801
:1006E000884205D00690089809909DE70321E2E72B
:1006F0000CB0BDE8F087000000600040340100202D
:100700000446826903A1012002F078F8204600F037
:1007100013F80000484152444641554C543A455262
:10072000524F523A486172646661756C742050434E
:100730003A25780D0A000000BFF34F8F0548016885
:10074000054A01F4E06111430160BFF34F8F00BF20
:10075000FDE700000CED00E00400FA052DE9F04192
:10076000324F00254FF48A782E464146384601F034
:10077000FDFE2F4CA0B14146384601F0FCFEE0687A
:1007800070B1D7F84015814203D1E18800EB8106B2
:1007900000E00646C7F84065607940F004006071EB
:1007A0004FF482784146384601F0E0FEB8B1414648
:1007B000384601F0E0FEA06888B1D7F838158142CC
:1007C00002D1E18800EB8100C7F83805617941F07A
:1007D000020161710A0701D5CA0711D00546607987
:1007E000C10711D0810709D5410707D520F00600C0
:1007F0006071010710D520F008006071BDE8F0813C
:1008000021F008006071EAE755EA0600F6D0E288B8
:1008100031462846236805E0D7F84015D7F8380553
:10082000E2882368BDE8F04118470000005002400C
:100830008C01002000F01F0201219140400980003E
:1008400000F1E020C0F88012704700F01F02012183
:1008500091404009800000F1E020C0F8001170478D
:1008600000F01F02012191404009800000F1E020CA
:10087000C0F800127047000070B54FF4847630461F
:1008800001F0E6FF1A4D1B4C60B1304601F0E8FF65
:100890002968E0688142218900D120696268BDE849
:1008A000704010474FF48076304601F0D1FF78B1A8
:1008B000304601F0D5FF012060702A680C49E068DD
:1008C000091D824200D12069228928600A6070BD1A
:1008D0004FF48275284601F0BBFF0028F7D0284668
:1008E00001F0BEFF0249002060390860607070BDF1
:1008F00060D501409C01002010B501F089FABDE8E7
:10090000104001F0C7BB00000149024801F058B88F
:10091000B001002000C001400149024801F050B878
:10092000B8010020001002400149024801F048B817
:10093000C0010020002002402DE9F8432A48DFF8DA
:10094000A4804FF480720168284E002589B1D8F840
:10095000041311F0010F0CD00560006800902448CA
:1009600062F30F040068726860F31744394620464A
:1009700090471D484FF48271001D0268BAB1D8F843
:10098000042312F0020F12D005600068009018488E
:1009900061F30F040C30006860F31F4414483C30CE
:1009A0000068726860F30F073946204690470E488A
:1009B0004FF48472083041460368002B10D0D1F800
:1009C000041311F0040F0BD005600068009020465E
:1009D00062F30F00726801B03946BDE8F04310477A
:1009E000BDE8F88300200140002101408400002080
:1009F0000C2501401CB510480E4903680022002B4D
:100A000016D0D1F8081311F0010F11D00260006860
:100A100001900A4800688DF800006946084801F016
:100A200069FF074801F050FF002801D001F056FC93
:100A30001CBD000000D0004000D1004008D500409F
:100A40002C35000003220021014801F051BC0000B8
:100A500000B0004007480021C0F84011C0F8441120
:100A6000C0F84811C0F84C11C0F80011C0F80411CA
:100A700002F0C2BB0010014004220121014801F034
:100A800037BC0000004002402DE9FE434FF482785D
:100A9000404601F093FF504F0025504C012600B313
:100AA000404601F093FF94F82B0010B194F82C10FD
:100AB000D1B18DF80050616801912189ADF808101D
:100AC000E16829B16160A18A2181E56018B103E084
:100AD00084F8295000E03E6021686846884784F821
:100AE0002C5094F82B0098B34FF48077384601F0DF
:100AF00065FF68B3384601F069FFE28A72B194F885
:100B00002A108A4210D9A2EB010080B2E082228929
:100B1000A2EB0000626802EB40000BE0208994F831
:100B20002A10A0EB0100F0E707D1E06828B184F8B3
:100B30002C60E58201F03AFF04E08A4202D184F899
:100B40002C60E582404601F041FF2348001D06600D
:100B50004FF48877384601F031FF50B1384601F044
:100B600035FF84F8295002208DF80000216868467E
:100B700088474FF48A77384601F020FF30B1384675
:100B800001F024FF84F82950BDE8FE834FF00048AF
:100B90004FF48C7927691CE0B7FA87F028FA00F146
:100BA00009EB80058F43284601F008FF88B12846ED
:100BB00001F00CFFA5F58C75E8088DF8040045F3ED
:100BC0008000401C8DF800608DF8050021686846A3
:100BD0008847002FE0D1D7E700700040F8010020DF
:100BE00003480078002801D100F016BA70470000D1
:100BF000D004002070B50E46144900EB400001EB14
:100C0000C0051446E86A183520B101280FD0022823
:100C100005D113E0284600F033FAA04201D20024A7
:100C200011E022463146284600F062FA0BE02846E1
:100C300000F026FAA042F4D20446F2E731462846F4
:100C400000F029FA0446204670BD0000D0040020C0
:100C5000014800680047000050000020014800687B
:100C600000470000580000200148006800470000CD
:100C70006000002002F05CBA02480188012001F007
:100C800087BB00003C02002002484188022001F09E
:100C90007FBB00003C02002002488188032001F055
:100CA00077BB00003C0200200248C188042001F00C
:100CB0006FBB00003C02002002480189052001F0C2
:100CC00067BB00003C020020F0B598480023021DDD
:100CD00001780125101D4FF08056062907D11478A0
:100CE000240704D10478C4F30314032C02D006298A
:100CF00004D00FE08F4F8E4C7C670EE014782407F1
:100D000008D10478C4F30314032C06D0042C04D0B7
:100D1000052C02D0062907D00EE0D6F84442864FB3
:100D2000C4F342343C6002E01478240704D1047810
:100D3000C4F30314032C02D0062906D011E07F4C23
:100D4000276827F0807727600EE01478240708D101
:100D50000478C4F30314032C06D0042C04D0052C0F
:100D600002D006290AD011E04FF08044C4F80C31BB
:100D7000C4F81031704C241F236002E0147824075B
:100D800004D10478C4F30314032C02D0062905D03F
:100D90000CE0694F032464373C600AE014782407B0
:100DA00004D10478C4F30314032C02D006290DD017
:100DB00014E0634F05243C60614C78342560604C3E
:100DC000083423603F243F1D3C6002E01478240770
:100DD00004D10478C4F30314052C02D0062957D09B
:100DE00068E058490968584A11605649091D096860
:100DF000121D1160534908310968121D11605149D3
:100E00000C310968121D11604E4910310968121D1C
:100E100011604C4914310968121D1160494918319B
:100E20000968494A2032116046491C310968121D7F
:100E30001160444920310968121D11604149243173
:100E40000968121D11603F4928310968121D11609F
:100E50003C492C310968121D11603A49303109684A
:100E6000394A40321160374934310968121D116026
:100E7000344938310968121D116032493C31096822
:100E8000121D11602F4940310968121D116002E0E6
:100E9000117809070ED10078C0F30310032803D09E
:100EA000042801D0052805D1D6F85802274900F0BA
:100EB0004F00086021487438016841F470010160F6
:100EC000BFF34F8FBFF36F8F4FF01021D1F80002A7
:100ED000002803DBD1F80402002822DA1C4A15603E
:100EE0001C480468002CFCD01524C1F80042056899
:100EF000002DFCD0C1F8044201680029FCD0136029
:100F000001680029FCD0BFF34F8F0C48F03801680E
:100F1000114A01F4E06111430160BFF34F8F00BF3C
:100F2000FDE70F490D480860F0BD0000E00F00F03C
:100F30000DF0ADBA00C007403C050040FCED00E0FC
:100F4000105600400404001020C50040E40E00408C
:100F500004E5014000E401400400FA050090D003DC
:100F6000D000002004220249024800F078BD0000B1
:100F7000480200200080004004220249024800F09C
:100F80006EBD00005402002000900040042202497F
:100F9000024800F064BD00006002002000A0004094
:100FA00006220249024800F05ABD00006C020020EF
:100FB00000A0014006220249024800F050BD000096
:100FC0007802002000B001400448017F0448002955
:100FD000024901D002F019BA02F088B98402002057
:100FE00000200040094882B0D0F804034FF000010F
:100FF00010F0010F07D00648016000680090054816
:10100000406802B0004702B0704700000000014095
:10101000000101409C00002010B5124C022020610C
:10102000606111A0A061A4F50470E0614FF400704C
:1010300020620020A06260620BA1A164E062A4F1C2
:101040001001E16410212165A0656065E06509A1DA
:10105000E01DFFF728FA08A12046FFF724FA202018
:10106000A07110BDD00400205465726D696E616C72
:1010700000000000525454005345474745520000B9
:101080000269C1688A4203D88068401A104400E0AF
:10109000501A401E70472DE9F047C468174689462C
:1010A00006464FF000083069A04201D9051B02E056
:1010B000B168201A0D1AB0686D1E001BA84200D836
:1010C0000546BD4200D33D4670682A462044494645
:1010D000FFF7D0F9B0687F1B2C44A844A944A04274
:1010E00000D10024F460002FDDD14046BDE8F08738
:1010F0002DE9F041C6680446174688468068851B7E
:101100006068BD4206D93044FFF7B4F9F019E060D9
:10111000BDE8F0812A463044FFF7ACF97E1B08EBAE
:10112000050132466068FFF7A5F9E660F0E70000C8
:101130000FB41CB50246002007AC00290BD0491E95
:10114000CDE90021054B6A462146069800F018F8C3
:10115000009A002111701CBC5DF814FBE31500001F
:1011600002E008C8121F08C1002AFAD17047704770
:10117000002001E001C1121F002AFBD170470000CE
:101180002DE9FF4F8DB00F460546002606E02528C5
:101190000BD0DDE90F1290476D1C761C28780028D3
:1011A000F5D111B03046BDE8F08F0024A246A1462B
:1011B0000122EC4900E0044315F8013F203B02FA0C
:1011C00003F00842F7D128782A2810D06FF02F02B8
:1011D0002878A0F13001092914D80AEB8A0102EB22
:1011E000410144F0020400EB010A6D1CF0E701CF5D
:1011F0005FEA000A03D544F40054CAF1000A44F03F
:1012000002046D1C28782E2817D115F8010F44F020
:1012100004042A280ED06FF02F022878A0F13001A4
:1012200009290AD809EB890102EB410100EB010908
:101230006D1CF2E757F8049B6D1C28786C280FD0C2
:1012400006DC4C2817D068280DD06A2814D104E099
:10125000742810D07A280FD10DE044F400140AE06D
:1012600044F4801401E044F440146978814202D1CE
:1012700004F580146D1C6D1C2A786E2A1FD00CDCBE
:10128000632A31D004DC002A8BD0582A11D1A3E084
:10129000642A68D0692A0CD165E0732A2ED004DC58
:1012A0006F2A73D0702A04D19BE0752A6FD0782AF8
:1012B0006ED01046DDE90F129047761C50E1C4F362
:1012C0000250022806D0032809D0042801CF09D0F3
:1012D000066045E101CFF117C0E9006140E101CFAF
:1012E00006803DE106703BE117F8040B8DF8000025
:1012F00000208DF80100EB46012003E057F804BB05
:101300004FF0FF3061074FF0000102D40DE008F10B
:101310000101884649450FDA8045F8DB1BF80810C3
:101320000029F4D108E008F1010188468142FADB86
:101330001BF808100029F6D1DDE90F23AAEB0800FD
:101340008146214600F036F9304400EB080604E0FF
:10135000DDE90F121BF8010B9047B8F10108F7D235
:1013600021464846F7E00A21C4F302534FF0000B30
:101370000891022B04D001CFC117032B09D00AE03A
:10138000FF1D27F00707F7E8020108E032E01FE041
:1013900020E000B2C117042B01D140B2C117031ED7
:1013A00071F1000307DA4FF0000CD0EB0C006CEB8E
:1013B00001012D2302E0230504D52B238DF82430D1
:1013C000012303E0E30701D02023F7E7984658E024
:1013D0000A2110E010210EE010204FF0000B0890C1
:1013E0000CE010214FF0000B44F004044FF008090A
:1013F000089103E008214FF0000B0891C4F3025359
:10140000022B04D001CF0021032B06D006E0FF1DE4
:1014100027F00707F7E8020103E080B2042B00D1B0
:10142000C0B24FF0000823072BD5702A07D0DDF893
:1014300020C08CF0100C5CEA0B0C05D00EE04023B1
:101440008DF82430012308E050EA010306D0302350
:101450008DF824308DF8252002239846DDF820C031
:101460008CF0080C5CEA0B0C0BD150EA010301D1A3
:10147000630706D530238DF824304FF00108A9F119
:101480000109582A04D038A20B9208AA0A920BE04C
:101490003AA2F9E75B46089AFFF70EF80B9B9B5CB4
:1014A0000A9A521E0A92137050EA0102F2D10A9867
:1014B000ADEB000000F1200B600702D524F480346E
:1014C00001E04FF00109D94502DDA9EB0B0000E076
:1014D000002000EB0B0141440890AAEB010AE00355
:1014E00006D4DDE90F232146504600F063F8064498
:1014F0004FF0000908E009A911F80900DDE90F1211
:10150000904709F10109761CC145F4DBE0030CD5D5
:10151000DDE90F232146504600F04CF8064404E074
:10152000DDE90F1230209047761C0899481E08907C
:101530000029F5DC08E00A980A990078491C0A910C
:10154000DDE90F129047761CBBF10001ABF1010BF6
:10155000F1DC21465046DDE90F2300F019F806447E
:101560006D1C1BE609280100303132333435363723
:1015700038396162636465660000000030313233DF
:10158000343536373839414243444546000000007F
:101590002DE9F041044600251E461746880404D470
:1015A00005E039462020B0476D1C641EF9D5284659
:1015B000BDE8F0812DE9F041044600251E46904625
:1015C000C80301D5302700E02027880404D505E0B2
:1015D00041463846B0476D1C641EF9D52846BDE823
:1015E000F0814A68002A06D00A68531C0B6010700C
:1015F0004868401E4860704708A1012001F0FAF8D1
:10160000BFF34F8F0B4801680B4A01F4E0611143AF
:101610000160BFF34F8F00BFFDE700004150505FF6
:101620004552524F523A4552524F523A46617461B6
:101630006C0D0A000CED00E00400FA050EB5002167
:101640000091CDE901106A4644F20100FFF7D4FF92
:101650000EBD00F003B800F009B8000072B60248F1
:101660000168491C01607047C800002003490868F0
:10167000401E086000D162B670470000C80000201C
:10168000002901DA0020704702681144016001203E
:101690007047000005494FF0FF32082841F820202C
:1016A00002D3084480F8482070470000340100202D
:1016B000F0B54FF0FF3512B10023082601E00823F2
:1016C0000C260C4C05E000BF54F823707F1C04D09E
:1016D0005B1CB342F8D32846F0BD26185DB286F8ED
:1016E000305044F82310002AF5D1E11881F8480061
:1016F000F1E70000340100200249084490F930006D
:10170000704700003401002070B5084C050009D076
:1017100010342168002907D00868206049682846ED
:101720008847F6E70834F4E770BD00002001002088
:101730002DE9F05F26484168F1B3DFF898B00E68F4
:101740008146DBF8004087688078E11B21F07F4507
:10175000ED1CB0B9DFF880804FF48030C8F8440346
:10176000C8F804031120FFF765F81120FFF76DF8A2
:101770004FF0010AC8F800A02F2000F003FB89F801
:1017800002A0B54200D23546124BE8193C3320F096
:101790007F401860DBF800105A46091B21F07F419A
:1017A000001B20F07F40C91C81420FD910681860CF
:1017B0002F2000F0E7FA00E004E0BDE8F05F112020
:1017C000FFF74EB8BDE8F05F01F0D2BBBDE8F09F77
:1017D000A80000200415014000100140D0ED000ACF
:1017E0009FED3F0A01223F4B60EE800AB1EE042AD2
:1017F000FCEEE01AC1ED001AD0ED000A20EE800ADE
:10180000BCEEC01AB7EE000A81ED011A0A724A72E4
:10181000D0ED010A10EE902AA2F17A529A420ED827
:10182000B8EE611AF5EE001A70EEE10A60EE820A77
:1018300061EE200AFCEEE00AC1ED000A16E010EEAF
:10184000902A294B1A44294B9A420FD8B8EE411AD4
:10185000DFED271A70EEE11AF0EE400A41EEC20AFF
:1018600061EE200AFCEEE00AC1ED010AD0ED010AAA
:10187000002010EE902AB1EE001AB2F17A5F0DDA74
:10188000D1ED001A00EEC10AF8EE611A21EE800ACD
:10189000BCEEC00A81ED000A087213E010EE902A37
:1018A000B2F17D5F0EDD70EE600AD1ED011A00EE3F
:1018B000C10AF8EE611A21EE800ABCEEC00A81ED81
:1018C000010A48720A684FF47A7312B19A4200D939
:1018D00008604A68002A02D09A4200D948607047DE
:1018E00000007A44666666003333F3C03333330056
:1018F000CDCC0C3FFFB5002301244FF0A0456E4630
:10190000CA5CFF2A12D0D70922F0800246F82320B1
:1019100004FA02F702D0C5F8087501E0C5F80C75A5
:1019200005EB82020327C2F8007703E04FF0FF3295
:1019300046F823205B1CDBB2042BE1D3016832465E
:101940005FF0000001EB800452F82030C4F86035ED
:10195000401CC0B20428F5D3FFBD000010B50748F5
:1019600001F01EF9054905481031FFF737FF03481C
:10197000BDE81040103001F055BB0000D40000203D
:101980000E4910B50A784C780023A24212D0521C9E
:10199000D2B20A70022A00D10B70084A0B781832B2
:1019A00052F8232002608868104420F07F4088604D
:1019B000012010BD0360002010BD0000A800002021
:1019C00070B50C460546102100F069FF68B14FF470
:1019D00088763146284600F057FF30B13146284618
:1019E00000F057FF2168012088472021284600F099
:1019F00056FF68B14FF48A763146284600F044FF1E
:101A000030B13146284600F044FF21680220884763
:101A10008021284600F043FF68B14FF48E763146AE
:101A2000284600F031FF30B13146284600F031FF42
:101A30002168002088474FF482763146284600F01E
:101A400023FF00280AD03146284600F022FF01205B
:101A500020712168BDE870400320084770BD2DE962
:101A6000F84300251646884604462F4614E04FF4F6
:101A7000A07000EB85004FF480312258A9404AB194
:101A8000D4F804230A4205D0275021580091D8E900
:101A9000002190476D1CEDB2B542E8D3BDE8F88354
:101AA0000121814003484068014201D00120704774
:101AB000002070477C00002001218140080300D0F5
:101AC000012070472DE9F043264CA4F1100922783B
:101AD000D9F8048099F80350404694F801C0D9F829
:101AE000086031E002EB42036168521C01EBC30164
:101AF000A378D2B2934200D100220B78022B02D0FD
:101B0000032B21D11DE003464F68194603E0B9427B
:101B100003D00B46C969B9B1F9E7A9B18B4205D128
:101B2000C06918B9104E0125B56000260F68C96953
:101B3000D96149B10B683B440B6005E00174C06991
:101B400000E000210028F9D19445CBD1C9E9010674
:101B500089F80350404502D00120BDE8F083002001
:101B6000FBE70000B8000020001001402DE9F04123
:101B70002A4F0446002607F11005D7F804803EE0FE
:101B800002D02046E4691DE02878696800EB400235
:101B9000401CC0B201EBC2012870AA78904200D16B
:101BA0002E700A784868012A2BD1027C4ABB8A68C9
:101BB0004260CA6882600A69C26049698161F978D5
:101BC00001B146604368BA68DFF854C0991A21F041
:101BD0007F41614502D28268114406E0D11A8268D1
:101BE00021F07F418A4202D9511A016000E006606B
:101BF0004660012186600174C66101F0DFFA002CA5
:101C0000BED1287869788842BED17968414502D032
:101C10000120BDE8F0810020FBE70000A8000020C3
:101C2000FFFF7F0000F002FE09A1032000F0E2FDAB
:101C300001F036F800F046F801F036FA0D4C0025B8
:101C400020780028FCD0FFF789FE2570F8E7000017
:101C50003A494E464F3A0A0A496E69746961746995
:101C60006E6720616C6C2073797374656D732E20C0
:101C70000A0000000000002010B50446007A002889
:101C80004FF0100005D000F043FC0F2000F040FCA6
:101C900004E000F036FC0F2000F033FC607A0028EE
:101CA0004FF0160006D000F033FCBDE810401720BE
:101CB00000F02EBC00F025FCBDE81040172000F01D
:101CC00020BC00000EB5124A07CA8DE8070010209C
:101CD00000F0FEFB0F2000F0FBFB162000F0F8FBED
:101CE000172000F0F5FB0B4A69460B4800F06EFA2E
:101CF00008B1FFF7A3FC08480021083001804180AB
:101D00008180C18005A1132000F074FD0EBD00008C
:101D100008350000492A0000400000204D6F746F14
:101D2000722050574D20696E697469617465642E24
:101D3000200A00001FB5054B0FCB8DE80F000223D2
:101D400001226946024800F091FA1FBD14350000D7
:101D500040000020C20800F007030120895C984081
:101D60000840704700F180400068002800D0012042
:101D7000704708B500F180400021016000680090C4
:101D800008BD000000283ED01F49204A096800BF56
:101D900000BF00BF00BF00BF00BF00BF00BF914237
:101DA0002FD000BF00BF00BF00BF00BF00BF00BFFB
:101DB00000BF00BF00BF00BF00BF00BF00BF00BF2B
:101DC00000BF00BF00BF00BF00BF00BF00BF00BF1B
:101DD00000BF00BF00BF00BF00BF00BF00BF00BF0B
:101DE00000BF00BF00BF00BF00BF00BF00BF00BFFB
:101DF00000BF00BF00BF00BF00BF00BF00BF00BFEB
:101E000000BF401EC3D17047D00000200024F40062
:101E10002DE9F0414FF480773846FFF7A3FF012406
:101E2000104EA50748B13846FFF7A3FF0120C5F8BB
:101E3000080374700020FFF767FC4FF48277384680
:101E4000FFF790FF00280BD03846FFF792FF0220E3
:101E5000C5F80803B470BDE8F0410120FFF754BC99
:101E6000BDE8F081200100204907090E002806DAAC
:101E700000F00F0202F1E02282F8141D03E000F1ED
:101E8000E02282F8001400F01F0201219140400975
:101E9000800000F1E020C0F88012C0F80011704707
:101EA00070B505464FF4BE7400F0C2FD38B1284647
:101EB000FFF722FC4FF4807101EB800084B20148EF
:101EC000204470BD006000402DE9F0418846054681
:101ED00000F0A2FD234E002828461AD0FFF70CFC84
:101EE000304490F848008009032802D001280ED021
:101EF00007E04FF0A040D0F81005E84010F0010FC7
:101F000005D003212846BDE8F04100F0E9BA0221DE
:101F1000F8E700F08DFD002822D02846FFF7ECFB03
:101F200004464FF4807000EB84000F4F81B207EB42
:101F30008400D0F8102542F00102C0F810250846B0
:101F400000F002FBB8F1000F0AD02846FFF7D4FBDF
:101F500056F82000002803D00120A040C7F8040351
:101F6000BDE8F08134010020006000402DE9FC4113
:101F7000DFF8A480044608EB0400002790F9300045
:101F80001346C0170E46401C01D0082741E0F278E6
:101F900019462046FFF78CFB0546401C38D0B07828
:101FA00050B14FF0A04000EB8400D0F8001721F0B2
:101FB0000201C0F8001707E0002173782046009165
:101FC0000A46019100F072FAF078C0B113483178F6
:101FD00000EB8500D0F81025114B1A40C0F81025F1
:101FE0004FF4F8524FF4403302EA042203EA01416D
:101FF0000A43D0F810150A43C0F8102509E008EB91
:102000000500327810F8481F41EA8211017000E0A3
:1020100004273846BDE8FC81340100200060004000
:10202000FFE0FCFF70B5144D95F8540008B108208E
:1020300070BD0020411E2A18401CC0B282F830102A
:102040002028F8D300242046FFF724FB641CE4B2C8
:102050000C2CF8D307210620FFF706FF4FF4BE70C3
:1020600000F072FA05494FF00040C1F80403012066
:1020700085F85400002070BD34010020006000404D
:10208000034890F85400002800D001207047000059
:102090003401002070B54FF08040D0F80443114D5A
:1020A000600706D54FF4847000F0E4FB08B168685F
:1020B0008047A00607D54FF48A7000F0DBFB10B113
:1020C000A9680020884760060AD54FF48C7000F09C
:1020D000D1FB002804D0A968BDE870400120084762
:1020E00070BD0000700000202DE9F0470427144E59
:1020F000814600244FF001080020FFF7AAFA08FAF1
:1021000004F5354203D02046FFF7CAFC58B1002041
:10211000FFF7A1FA27B104F10104AE43E4B2EBD119
:102120003846BDE8F087074908FA04F000274A68F6
:102130001043486089F800403846FFF78CFAEFE713
:10214000FFFF0F007C0000202DE9F04114460D0038
:10215000074612D08CB10026FFF7AEFC78B13846A6
:10216000FFF79EFC68B1084800EBC700C0F81055A7
:10217000C0F814453046BDE8F0810E20FBE7072685
:10218000F8E70826F6E7000000F0014070B50446C5
:1021900001260025A640FFF78FFC18B12046FFF767
:1021A0007FFC18B102480660284670BD0825FBE791
:1021B00004F501400448017809B1852070470121E8
:1021C00001700020704700007C0000202DE9F041E4
:1021D0000D4604460079244901EBC006307910B160
:1021E0000820BDE8F081294620463260FFF782FBD7
:1021F00020680127C0F8007520686B79AA792989C1
:10220000C0F80C35C0F80425C0F80815AA7AE87A99
:10221000216842EA0020C1F8100520680021C0F8BA
:1022200000122068C0F800134FF48E71206800F08F
:1022300030FB4FF48871206800F02BFB4FF48A715B
:10224000206800F026FB4FF48271206800F021FB2B
:10225000306828B120682979000B40B2FFF704FEEE
:1022600037710020BDE70000B00100202DE9F041EA
:102270000F46044600791849164601EBC0081D4672
:102280003A460021206800F010FB3A460121206800
:1022900000F00BFB206806F0010101EB5602C0F8CC
:1022A0001425E80701D0102007E0A80704D509B1DC
:1022B000082002E0042000E000202268C2F80002AA
:1022C00009B10C2300E00823EAB241462046BDE8EC
:1022D000F04100F0C3BE0000B0010020034901201E
:1022E000C1F80803091D08607047000000D00040D5
:1022F0002DE9F0479146884604464FF480354FF467
:10230000A0760027DFF884A016E000BFD4F804030D
:1023100028420DD0A05958B1C4F84853C4F8085306
:102320003146204600F03CFB5AF82810F8B28847A6
:10233000361D6D00B6B27F1C4F45E7D3D4F80403B9
:102340004FF4807110F0010F09D0D4F8000130B1C2
:10235000204600F025FB5AF8281004208847D4F8BE
:1023600004034FF4827110F0020F0CD0D4F8040172
:10237000002808D0204600F013FB5AF82810BDE8CA
:10238000F04705200847BDE8F087000094000020D2
:10239000064A02EB400232F8023D8B431380034AA7
:1023A000143A02EB800252F8042C10473C02002041
:1023B00030B54FF4803405688C4013B1C5F8044340
:1023C00001E0C5F80843006800EB8100C0F8402533
:1023D00030BD0000016801220A600079034A00EB69
:1023E000400002EB80000221017270474802002089
:1023F000F0B40468049E40F20115D4F800728D40D8
:10240000AF43C4F800720468D4F800521D43C4F806
:1024100000523346F0BCFFF7CBBF0000F8B50446CE
:102420000D460079204900EB400001EB8006307A30
:1024300008B10820F8BD3AB13260686870600020C9
:1024400003464FF4A07709E00720F8BD226807EBA8
:10245000800153505158401CC0B2009161798142B3
:10246000F4D82068E978000B40B2FFF7FDFC206843
:102470006978D0F8042561F30102C0F804252068CA
:10248000A978D0F8082561F30102C0F80825206872
:102490002978D0F8102561F30302C0F81025012037
:1024A00030720020F8BD00004802002070B541EAFB
:1024B0004201DDE904564FF0A04441EA830141EABC
:1024C000052104EB800041EA0641C0F8001770BD09
:1024D0004FF0A04202EB80000321C0F800177047C4
:1024E0004FF0A04202EB8000D0F8002722F44032E7
:1024F000C0F80027D0F8002742EA0141C0F80017D1
:1025000070474FF0A04201218140C2F80C1570477E
:102510004FF0A04201218140C2F808157047000029
:1025200018B5084B6C4601441B68009306E000BFD9
:1025300054F82030D3F81035401C08C28142F7D837
:1025400018BD000024350000034908B508440021E7
:1025500001600068009008BD0060004002494058DA
:10256000012800D00020704700600040405800283B
:1025700000D00120704708B500224250405800901A
:1025800008BD000000487047B125000070B5074D38
:102590000446287810B16878844204D0FEF720FB06
:1025A000012028706C70002070BD0000CC0000205D
:1025B0002DE9F04FC1B017464FF0000208004092DD
:1025C0004D994B9A1E4602EB010A01D00A2100E008
:1025D000002188466D46AEB9294640AA00F04EFE5D
:1025E00000286FD03846FDF757FFC22800D9C22017
:1025F00004464098224628443946FDF73BFF409860
:10260000204440904FF0200B409901EB08023132FA
:102610000DEB01040DEB0205002002E004F801BB04
:10262000401C4045FAD30027564508D304F801BBA7
:1026300004F801BB04F801BB05F801BB2DE04B9881
:10264000864202D24A98805D02E0311A4C98405C82
:10265000012181460246880022FA00F000F00F00B6
:10266000092801D9373000E03030C1F1010C234690
:1026700004F80C00491EEED29C1C04F801BBFDF7C7
:10268000F5FE016811F8090010F03E0F01D0484630
:1026900000E02E2005F8010B761C7F1C102FC3D301
:1026A0000D2028700A20687084F800B040996846B0
:1026B00041444331409100F09EFC18B1002040900D
:1026C0005645A1D341B03046BDE8F08F2DE9F04129
:1026D000C6B090460846002505AE1C464C9F3146C4
:1026E00045AA459500F0CAFD002835D0072F27D20E
:1026F000DFE807F004121B35424F5D004046FDF74E
:10270000CBFE459905460844FF2819D870182A467B
:102710004146FDF7AFFE13E045982368C0F5807190
:1027200030444246FEF704FD09E060680090459899
:102730002368C0F5807130444246FEF7F9FC054637
:10274000294645A8FEF79CFF459978B3B1F5807FEF
:102750003ED805A800F04FFC46B0BDE8F081D4E9B2
:102760000101CDE9000145982368C0F5807130442E
:102770004246FEF7DDFCE2E7201D07C88DE80700B2
:1027800045982368C0F5807130444246FEF7D0FC7E
:10279000D5E7201D0FC88DE80F0045982368C0F5C8
:1027A000807130444246FEF7C3FCC8E710E004F1F4
:1027B000080001AD0FC885E80F00606800904598DB
:1027C0002368C0F5807130444246FEF7B1FCB6E79D
:1027D0000020C1E700487047CD26000038B50D46FF
:1027E0000093034B00215C6913462A46A04738BD7D
:1027F000A402002000231A46FFF7F0BF08B501230A
:1028000000926A46FFF7EAFF08BD7FB5DDE908459B
:102810008DE83C0004236A46FFF7E0FF7FBD00001F
:10282000014AC2E905017047A402002070B50120E9
:10283000FFF7ACFE040008D1FFF7CCFF0546FFF719
:10284000A1FE01462846FFF7EBFF204670BD0000C1
:1028500002494058002800D00120704700D00140B4
:10286000034908B50844002202600068009008BDD2
:1028700000D0014000F180410868002210B1012021
:102880000A607047104670474058002800D0012069
:10289000704708B5002242504058009008BDD0F85B
:1028A0000403084000D00120704700EB411013687A
:1028B000C0F820359188C0F824159168C0F8281513
:1028C000D168C0F82C157047016880684A68824258
:1028D00001D2521C00E000220868824201D101208E
:1028E0007047002070478068884201D9481C7047B3
:1028F000002070472DE9F04104464FF000080E46D5
:102900004046FEF7A6FE2046FFF7DEFF070009D08F
:10291000207C38B14FF004080020FEF79CFE4046B2
:10292000BDE8F0812068416820460D46FFF7DBFFD7
:102930002168486037B1206801682046FFF7D3FF5F
:1029400021680860E268012A14D0022A16D0042AFD
:1029500019D0082A1CD06068314605FB0200FDF73B
:1029600089FD204600F071F821688A688242D3D23E
:102970008860D1E7616830784855F2E7616830884F
:1029800021F81500EDE76168306841F82500E8E7B7
:10299000D6E90001626802EBC502C2E90001E0E786
:1029A00008B5002242504058009008BD024A10600D
:1029B000101D0160704700002C760040024940580D
:1029C000002800D00120704700700040034908B57E
:1029D0000844002202600068009008BD00700040BA
:1029E0004058002800D00120704708B5002242500E
:1029F0004058009008BDD0F80403084000D00120E2
:102A000070474058002800D00120704708B50022C8
:102A100042504058009008BD0449084490F93000E5
:102A2000082801DB01207047002070473401002096
:102A30000449084490F93000082801D20120704769
:102A400000207047340100207047016806C98A429F
:102A500001D3501A70478068401A401C10447047D8
:102A60001F4A204992ED010A90B101281DD0022889
:102A700028D003280BD11C48006800EE900AF8EE1D
:102A8000600A20EE800ABCEEC00A81ED030A70479E
:102A90001648006800EE900AF8EE600A20EE800A00
:102AA000BCEEC00A81ED000A70471148006800EED4
:102AB000900AF8EE600A20EE800ABCEEC00A81EDB2
:102AC000010A70470B48006800EE900AF8EE600AB1
:102AD00020EE800ABCEEC00A81ED020A70470000B9
:102AE0000C000020F000002050B50140449500404B
:102AF00048A500404CA50140234991ED020A234915
:102B000030B1012811D002281CD0032833D126E08F
:102B10001F4A126800EE902AF8EE600A20EE800A42
:102B2000BCEEC00A81ED040A25E01A4A126800EEE4
:102B3000902AF8EE600A20EE800ABCEEC00A81ED11
:102B4000050A18E0144A126800EE902AF8EE600AAE
:102B500020EE800ABCEEC00A81ED060A0BE00F4AA7
:102B6000126800EE902AF8EE600A20EE800ABCEEB1
:102B7000C00A81ED070A01EB800251F820001369B9
:102B8000181A1062704700000C000020F0000020AE
:102B90004495004048A500404CA5014050B5014077
:102BA00010B59FED161A164B9FED160A002142F242
:102BB0001074F7EE001A00BF03EB8102126A00EEF8
:102BC000902AA242F8EE600A0AD330EEC12A00EB46
:102BD0008102C2EE000A71EEE00AC2ED000A07E0CF
:102BE00070EEC00A00EB810280EE802A82ED002A9E
:102BF000491CC9B20429DFD310BD000000A08C46D7
:102C0000F000002000007A4438B5FFF739FA10B917
:102C1000FFF708FA0446200001D0FEF70FFD154823
:102C2000154A69460068009001208DF801000B20CC
:102C3000FFF79CF908B1FEF701FD0F4A69460C2029
:102C4000FFF794F908B1FEF7F9FC0B4A69460D202D
:102C5000FFF78CF908B1FEF7F1FC074A69460E2030
:102C6000FFF784F908B1FEF7E9FC04A11320FFF790
:102C7000C1FD38BD04350000ED2C000052616469CF
:102C80006F20636F6E74726F6C6C65722047504971
:102C90004F544520656E61626C65642E200A000009
:102CA00010B500F011F9FFF7AFFF00F079F801213E
:102CB0000B20FFF709F901210C20FFF705F9BDE80A
:102CC000104002A11320FFF795BD00005261646916
:102CD0006F20636F6E74726F6C6C657220696E69C1
:102CE0007469617465642E200A0000007CB50023BD
:102CF0000124204905460B2806D00C2D0CD00D2DA3
:102D000012D00E281DD117E00A78002012B10B70E6
:102D10000A7816E00C70FBE74A78012012B14B707C
:102D20004A780EE04C70FBE78A78022012B18B7073
:102D30008A7806E08C70FBE7CA7803209AB1CB70E2
:102D4000CA78012A11D0002A0CD1FFF7D5FE0A4813
:102D5000D0E90A12CDE90012D0E9082307A1132017
:102D6000FFF753FD7CBDCC70EAE7BDE87C40FFF780
:102D700077BE00000C000020F00000204368616E68
:102D80006E656C2076616C7565733A202564202D24
:102D9000202564202D202564202D202564200A0074
:102DA0002DE9FF47FFF706FA08B1FEF747FC684632
:102DB000FFF79AF908B1FEF741FC01A8FFF794F973
:102DC00008B1FEF73BFC02A8FFF78EF908B1FEF749
:102DD00035FC03A8FFF788F908B1FEF72FFC0B209C
:102DE000FFF75EF807460C20FFF75AF881460D20E2
:102DF000FFF756F880460E20FFF752F88246284823
:102E0000394602680830443206680830483605689A
:102E100008304C3504689DF800005034FFF794F9F1
:102E200008B1FEF70BFC324649469DF80400FFF757
:102E30008BF908B1FEF702FC2A4641469DF80800CE
:102E4000FFF782F908B1FEF7F9FB224651469DF8DB
:102E50000C00FFF779F908B1FEF7F0FB9DF80000D0
:102E6000FFF794F908B1FEF7E9FB9DF80400FFF7BE
:102E70008DF908B1FEF7E2FB9DF80800FFF786F92F
:102E800008B1FEF7DBFB9DF80C00FFF77FF908B1F6
:102E9000FEF7D4FB03A11320FFF7ACFCBDE8FF87CE
:102EA0001800002050504920696E6974696174658A
:102EB00064206F6E20666F7572206368616E6E6548
:102EC0006C732E200A0000001E4910B51C4AA1F1A7
:102ED0002000FFF7A3FA08B1FEF7B0FB1949184A22
:102EE000A1F11800FFF79AFA08B1FEF7A7FB154900
:102EF000134AA1F11000FFF791FA08B1FEF79EFB0B
:102F000010490F4AA1F10800FFF788FA08B1FEF74F
:102F100095FB0C482038FFF75DFA0A481838FFF790
:102F200059FA08481038FFF755FA06480838FFF7ED
:102F300051FABDE8104004A11320FFF75BBC00006C
:102F40006D2F000038000020526164696F20636FAC
:102F50006E74726F6C6C65722074696D657273202B
:102F6000656E61626C65642E200A00007047000087
:102F700070B5012670044FF0E0210025C1F88001F2
:102F8000084C4010C4F84803C4F8080366602F20BA
:102F9000FEF7F8FEA660044C2F20A560FEF7F2FEB7
:102FA000A57070BD00100140A800002070B5054656
:102FB000C87D0C4600284FF4847128460AD0FFF7DC
:102FC00014FDD5F81805627EE1688854607E401CC7
:102FD000607670BDFFF709FDD5F8180570BD1FB507
:102FE00001238DF800308DF808100192D0E900120D
:102FF000684690471FBD2DE9F041002507464FF078
:1030000001080C460A26791922460020FDF7F2FD38
:103010000544241A08B9761E01D0002CF3D140468D
:10302000BDE8F08110B50446FEF726FE2068C0F525
:103030007A71094801802168C1F57A71418061681F
:10304000C1F57A7181806168C1F57A71C180BDE88E
:103050001040FEF76FBE00004800002070B5044627
:1030600002201D460871086870B18221500700D502
:103070009221100701D541F02001D00601D521F0A1
:1030800080012068C0F800134FF482712068FFF7B8
:1030900000FC20680121415170BD00000149012060
:1030A000087070470000002008B50F4A0F4910480B
:1030B000FFF7B4F908B1FEF7C1FA0D480068D0F87F
:1030C00010050C4A0021C240012003460090084828
:1030D000FFF78EF90648FFF77DF9BDE8084006A125
:1030E0001320FFF787BB00009D3000000400002084
:1030F000FC34000000350C004D61696E2074696D70
:10310000657220656E61626C65642E200A200A205B
:10311000436F6D6D656E63696E6720636F6E747269
:103120006F6C20616C676F726974686D2E200A0085
:103130002DE9F84F204C00256846D4E901B6FEF78A
:103140001FFC8046FEF7BEFC0746A946B8F1000FFB
:1031500025D00023009ACC46606819E00768014634
:10316000974202D9BA1A026014E0C1F800C0D1F83F
:103170000C80D21BC8693B448A46B8F1000F07D0C7
:10318000F71827F07F47C1E90178CAF81C500D46AF
:103190000028E3D160602846FEF7E8FC04E02846FA
:1031A000FEF7E4FC00B917B15846FEF7C1FA84F8FF
:1031B0000390BDE8F88F0000A80000200D4B10B56B
:1031C000596831B102680C68A24204D8A21A0A6098
:1031D000C161586010BD0B4603E00B46C969121B64
:1031E00021B10C689442F8D3A41A0C600260C1614A
:1031F000D86110BDA80000202DE9F0411D4D6C687C
:10320000002C35D01C4800270068A968B846401A31
:1032100020F07F462068B04215D82246361A07446F
:10322000E469107C68B182F81080EB6833B1D2E9B0
:103230000501984728B1FEF701FA02E0D2E905102E
:103240008847002CE6D129786878814206D1401C55
:10325000C0B26870022801D185F8018005486978FC
:10326000183040F82170BDE8F0411420FDF7F8BA9D
:10327000BDE8F081A80000200415014010B51446F7
:1032800002004FF001000CD00846136806A24FF46C
:103290008071FDF74DFF01462046BDE81040FEF766
:1032A000EFB90021216010BD5B253038645D00005E
:1032B00070B50C4605464FF48E71FFF796FBA18A58
:1032C000A068415CA08A401CA082C5F81C1570BD96
:1032D0001FB500228DF800208DF80810816801913B
:1032E0008275D0E90012684690471FBD2DE9FF475F
:1032F0000C4605464FF40071FFF77DFB01274FF4A4
:103300000178002618B34FF4927949462846FFF712
:1033100067FBE0B149462846FFF767FBC5F808831D
:10332000A07E00B96F6002208DF80000D5F88004FF
:10333000C5F880040390E07D8DF80800E0680190F6
:10334000E6752676D4E900126846904727E0042106
:103350002846FFF750FB10B34FF484712846FFF75F
:103360003FFBE0B121462846FFF720FEE07D617E6D
:10337000884214D1207E38B1617EE268E075206910
:10338000E0602676667607E0A07E00B96F60C5F83B
:103390000883E675617EE2682046FFF720FE4FF461
:1033A0008E7841462846FFF71BFB88B1A08AA17D95
:1033B000884204D221462846FFF77AFF08E04146BA
:1033C0002846FFF712FBA17D11B12046FFF780FFD1
:1033D0004FF4A27841462846FFF702FB002812D09E
:1033E00041462846FFF701FBA07E00B12F60E07D3B
:1033F000002808D0E675617EE26804B02046BDE88A
:10340000F047FFF7ECBDBDE8FF872DE9FF410C4613
:103410004FF4927705463946FFF7F3FA0026C0B11C
:1034200039462846FFF7F2FA02208DF80000D5F859
:103430008004C5F880040390D5F83C058DF8080099
:10344000E0680190E6752676D4E900126846904758
:1034500024E04FF4887739462846FFF7D2FAE8B1DE
:1034600039462846FFF7D2FAD5F83C05C1B2E07DCF
:10347000884213D1207E60B1E268D5F8000220F0C6
:103480002000C5F80002207EE0752069E060267605
:1034900001E0E675E2682046FFF7A1FD4FF4A27750
:1034A00039462846FFF7ADFA68B139462846FFF796
:1034B000ADFAE07D38B1E675D5F83C05E268C1B2F9
:1034C0002046FFF78CFD4FF4907631462846FFF7F3
:1034D00098FA00280FD031462846FFF797FAA07DCA
:1034E000002808D0D5F84C0504B0C1B22046BDE88C
:1034F000F041FFF7EDBEBDE8FF8100000080004015
:103500000004000003000001111213140000000069
:10351000E803020048000020040000000000000052
:10352000000000000000005000070000EC01002037
:10353000C801002020000000010000000000000081
:1035400000404040404040404040414141414140B6
:10355000404040404040404040404040404040406B
:1035600040050202020202020202020202020202FA
:1035700002202020202020202020200202020202FF
:103580000202909090909090101010101010101057
:103590001010101010101010101010100202020263
:1035A00002028888888888880808080808080808A7
:1035B00008080808080808080808080802020202A3
:1035C0004000000041350000E83500000000002008
:1035D000D400000060110000BC360000D4000020C0
:1035E00074240000701100000000000000000300BF
:1035F00000000000000000000000803D0000803D51
:10360000009000400104000000A0004002040000FF
:1036100000A001400306000000B0014004060000C5
:10362000000003000000000000C001400000000096
:10363000000000000000000000000000000000008A
:10364000000000000000000000000000000000007A
:10365000000000000000000000000000000000006A
:10366000000000000000000000000000000000005A
:10367000000000000000000000000000000000004A
:10368000000000000000000000000000000000003A
:10369000000000000000000000000000000000002A
:1036A000000000000000000000000000000000001A
:0C36B00000000000000000000090D003AB
:0400000500000401F2
:00000001FF
