:020000040000FA
:1000000050250020490400005104000015040000A0
:1000100055040000570400005904000000000000CF
:100020000000000000000000000000005B04000071
:100030005D040000000000005F0400006104000097
:10004000910A00006304000071120000010F00001B
:10005000110F00006304000091050000650C000012
:10006000F91100001112000029120000090C000013
:10007000630400009D0B00006304000063040000A3
:10008000951200001D0C0000D90A00008105000037
:10009000310F0000390F00004D0F0000610F00000C
:1000A000750F0000890F0000411200005912000076
:1000B0009D0A0000ED0900000000000000000000A3
:1000C00063040000B10A0000C50A0000210F00000F
:1000D000510C00004508000063040000000000000F
:1000E0000000000000000000000000000000000010
:1000F0000000000000000000000000000000000000
:1001000000000000000000000000000000000000EF
:1001100000000000000000000000000000000000DF
:10040000DFF80CD000F08AF800480047FD2100001A
:1004100050250020094B1EF0040F1CBFEFF309808C
:100420001847EFF308800649064A884201D89042EF
:1004300002D88D464FF0000018470000C9070000A1
:1004400050250020500500200648804706480047F8
:10045000FEE7FEE7FEE7FEE7FEE7FEE7FEE7FEE774
:10046000FEE7FEE7AD0F0000010400000048704702
:10047000F044000040EA01039B0703D009E008C9EB
:10048000121F08C0042AFAD203E011F8013B00F859
:10049000013B521EF9D27047421C10F8011B002983
:1004A000FBD1801A7047034611F8012B00F8012B8D
:1004B000002AF9D1184670472DE9F05F0546002063
:1004C00092469B4688460646814640241BE02846C5
:1004D00041464746224600F042F853465A46C01A63
:1004E000914110D311461846224600F029F82D1AE2
:1004F00067EB01084F4622460120002100F020F85A
:1005000017EB00094E41201EA4F10104DFDC484630
:1005100031462A464346BDE8F09F0000064C074D91
:1005200006E0E06840F0010394E8070098471034C3
:10053000AC42F6D3FFF768FFF44400001445000016
:10054000202A04DB203A00FA02F100207047914093
:10055000C2F1200320FA03F3194390407047202A88
:1005600004DB203A21FA02F00021704721FA02F35D
:10057000D040C2F120029140084319467047000064
:1005800010B502490868804710BD000064000020D3
:100590002DE9F04F89B04FF00008002008904FF48B
:1005A000807007900126002413E0079802F0B8FB42
:1005B00048B100BF81480068304020B1079802F080
:1005C000A1FB48EA060876000798001D80B2079054
:1005D000641C082CE9D34FF4BE7002F0A1FB50B1AB
:1005E0004FF4BE7002F08EFB48F0004808AA0121CB
:1005F000002002F06DFB08F0FF0000B3012600248C
:100600001BE006EA0800B0B100BF6D4850F82400B6
:10061000C0F30420074600BF694850F82400C0F327
:1006200001408146204601F0F3F9054615B14946DF
:100630003846A84700BF7600641C082CE1D308F0B8
:10064000004000287ED0002006900590002505E09F
:100650004FF0FF3004A941F825006D1C002DF7D0A4
:1006600000BF0020069000246FE05648005D039014
:10067000039820F0C00753480057401C002863D05F
:1006800004A9384601F052FE00285DD003984FEAD5
:10069000901A384601F004FA814601F0B9F9029047
:1006A000029810B9BAF1030F4BD1BAF1030F11D16F
:1006B000394605A80246CB0801F0070112F803C02D
:1006C0004FF0010E0EFA01FE4CEA0E0C02F803C0C8
:1006D00000BF00BF00BF00BF4FF0A041084600F5BB
:1006E000E06151F82710C1F3014900BF08A938465D
:1006F00001F01CFE8346BBF1000F02D0B9F1020FDE
:1007000005D0BBF1000F1BD1B9F1030F18D1BAF11D
:10071000030F0FD1B9F1020F01D1032000E0022035
:1007200001903846019902F098FA0698401CC0B230
:10073000069000BF029818B151463846029A904779
:1007400000BF00E036E000BF641C042C8DD3069887
:1007500058B3012703AA0121002002F0B9FA0025AD
:100760000AE003A850F8250008A951F8251088428E
:1007700001D0002702E06D1C002DF2D000BF17B1A0
:100780000020069010E000250CE003A850F825009A
:1007900008A941F8250005A850F8250004A941F84A
:1007A00025006D1C002DF0D000BF069800287FF4B6
:1007B00058AF00BF09B0BDE8F08F000004630040EF
:1007C0001065004088010020044604A10120A269B0
:1007D00002F085FC204600F013F800004841524426
:1007E0004641554C543A4552524F523A4861726410
:1007F0006661756C742050433A25780D0A0000003C
:1008000000BF00BF00BF00BF00BFBFF34F8F00BFDE
:1008100000BF00BF0948006800F4E06008490843D1
:10082000001D0649086000BF00BF00BFBFF34F8F27
:1008300000BF00BF00BF00BF00BFFDE70CED00E040
:100840000000FA052DE9F041002500264FF48A71D9
:10085000514802F077FA20B34FF48A714E4802F003
:1008600078FA4E48C068E0B100BF4D4800684B4977
:10087000C968884206D14948C0684849C98800EB20
:10088000810401E04548C4682146434802F06BFA00
:100890004248407920F00400001D40494871264636
:1008A00000BF4FF482713C4802F04CFA98B34FF409
:1008B0008271394802F04DFA3848806858B300BF59
:1008C00037480838006835498968884206D1334876
:1008D00080683249C98800EB810401E02F488468B0
:1008E00021462D4802F03CFA2C48407920F00200C5
:1008F000801C2A49487108464079C0F3C00058B1AD
:100900000846407900F0010030B90846407920F0EF
:100910000800487101E001E0254600BF1F4840790A
:1009200000F0010040B905B92EB31C48C288314619
:100930000368284698472DE018484079C0F34000E6
:10094000C8B116484079C0F38000A0B1134840797F
:1009500020F00200114948710846407920F0040057
:10096000487108464079C0F3C00028B10846407974
:1009700020F0080048710DE000BF094800680446F7
:100980000548D0F8380507460448C2882146036860
:1009900038469847BDE8F0810050024090010020A1
:1009A0004055024000F01F0201219140024A4309D4
:1009B00042F823107047000080E200E000F01F02C0
:1009C000012191404209920002F1E022C2F8001197
:1009D0007047000000F01F0201219140024A4309C4
:1009E00042F823107047000000E200E010B54FF419
:1009F000847002F0BBFBB0B14FF4847002F0C0FB16
:100A000000BF214800682149C968884205D11F4BB1
:100A1000198918695A68904734E01C4B1989D868BD
:100A20005A6890472EE04FF4807002F09FFBC0B1EF
:100A30004FF4807002F0A4FB01201449487000BFFD
:100A400011480068C968884205D1104A11891069A7
:100A500002F084FB16E00D4A1189D06802F07EFB9B
:100A600010E04FF4827002F081FB58B14FF48270B5
:100A700002F086FB00BF002003496039086000BF18
:100A80000249487010BD000060D50140A00100205F
:100A900010B501F0BBFC01F02DFE10BD10B50249F0
:100AA000024801F04BFA10BDB401002000C0014023
:100AB00010B50249024801F041FA10BDBC01002006
:100AC0000010024010B50249024801F037FA10BD8B
:100AD000C4010020002002401CB500BF4FF480700C
:100AE0002B494058B0B1012002F0BAFB90B14FF44D
:100AF000807002F0A9FB4FF48070ADF8000000BFD9
:100B00002448006840B28DF80200234ADDE9000164
:100B10001268904700BF4FF482701D494058F0B1F1
:100B2000022002F09DFBD0B14FF4827002F08CFBEA
:100B30004FF48270ADF8000000BF16480C3000681A
:100B400000B2ADF8020000BF12483C30006881B22C
:100B5000ADF80410104ADDE900011268904700BFAB
:100B60004FF484700A49405880B1042002F078FBA9
:100B700060B14FF4847002F067FB4FF48470ADF8FD
:100B80000000054ADDE90001126890471CBD000025
:100B9000002001400C2501408400002008B500BF62
:100BA00000BF00BF4FF480701349405808B10120C6
:100BB00000E00020E0B1012010490968014009B1BE
:100BC000012100E0002199B14FF4807002F0CAFBCE
:100BD00000BF0B480068C0B200906946094802F0A7
:100BE0005EFB084802F044FB08B101F0DDFE00BFE7
:100BF00000BF00BF08BD000000D0004008D3004087
:100C000008D500402C44000010B503220021024802
:100C100001F0D8FE10BD000000B0004010B500206B
:100C20000949086000210948C0F84411C0F848117A
:100C3000C0F84C1100200549C1F8000102493C39B7
:100C4000086003F0FDF910BD4011014000100140A3
:100C500010B504220121024801F0B4FE10BD0000CD
:100C600000400240FEB54FF4827002F0A5FB002860
:100C700035D04FF4827002F0A9FB794890F82B0030
:100C800018B1774890F82C0048B300208DF8000088
:100C900073484068019072480189ADF80810C06837
:100CA00020B900206E4981F829000FE06C48C06827
:100CB0006B4948600846808A08810020C860084661
:100CC00090F82B0010B9002002F08CFB64480168FA
:100CD000684688470020624981F82C0000BF6048C0
:100CE00090F82B0000286CD04FF4807002F064FB69
:100CF000002866D04FF4807002F068FB5848C08A24
:100D0000B0B957480089564991F82A10401A5449F9
:100D1000C8820A4612890B46DB8AD21A0B465B68E8
:100D200003EB42000A4692F82A1002F03DFB41E034
:100D30004B48C08A4A4991F82A10884216DD484833
:100D4000C08A474991F82A10401A4549C8820A4684
:100D500012890B46DB8AD21A0B465B6803EB420012
:100D60000A4692F82A1002F01FFB23E03C48C08A92
:100D70003B4991F82A1088420FD13948C06860B1C8
:100D80000120374981F82C000020C8820A4692F8D9
:100D90002A10D06802F008FB0CE03148C08A3049C4
:100DA00091F82A10884205D101202D4981F82C00A4
:100DB0000020C8824FF4827002F008FB042002F089
:100DC00011FB4FF4887002F0F7FA78B14FF4887095
:100DD00002F0FCFA0020224981F8290002208DF857
:100DE0000000084601686846884700BF4FF48A70D3
:100DF00002F0E2FA40B14FF48A7002F0E7FA002004
:100E0000174981F829002AE01548056924E0B5FA58
:100E100085F64FF00040F0408543B00000F58C743B
:100E2000204602F0C9FAB8B1204602F0CFFA0120FC
:100E30008DF80000A4F58C70C0F3C7008DF8040095
:100E4000A4F58C70012121EA90018DF80510044869
:100E500001686846884700BF002DD8D100BFFEBD9D
:100E6000FC01002010B500BF0348007808B900F06D
:100E700031FA00BF10BD0000D40400202DE9F04776
:100E8000074688461646C24607EB47011B4800EB5B
:100E9000C109D9F8140020B1012811D0022826D1A7
:100EA0001EE0484600F04EFA0546B54201D2002445
:100EB00005E0344632465146484600F08AFA18E0CA
:100EC000484600F03FFA0546B54201D2284600E008
:100ED0003046044622465146484600F07AFA08E079
:100EE00032465146484600F03BFA044601E00024F1
:100EF00000BF00BF2046BDE8F0870000EC040020E2
:100F000010B502490868804710BD00004C00002061
:100F100010B502490868804710BD00005400002049
:100F200010B502490868804710BD00005C00002031
:100F300010B502F0EBFF10BD10B503480188012089
:100F400001F09CFD10BD00004002002010B50348D8
:100F50004188022001F092FD10BD000040020020F7
:100F600010B503488188032001F088FD10BD000002
:100F70004002002010B50348C188042001F07EFD26
:100F800010BD00004002002010B503480189052073
:100F900001F074FD10BD000040020020014802492C
:100FA000086070470090D003D400002010B500F016
:100FB000CDFE10B182488349486700F0DFFE28B1BA
:100FC00081480068C0F342308049086000F000FFAB
:100FD00028B17F48006820F080707D49086000F0EB
:100FE0000FFF48B100207B4908604FF08041C1F8F5
:100FF00010017649091F086000F02CFF18B103208A
:1010000072496431086000F03DFF68B10520724903
:101010000860012070497831086000206E4908316D
:1010200008603F20091F086000F044FF002855D0E9
:101030006A4800686A4908606848001D0068091D20
:101040000860664808300068091D086063480C3075
:101050000068091D0860614810300068091D0860BB
:101060005E4814300068091D08605C48183000684C
:101070005B492031086059481C300068091D086030
:10108000564820300068091D086054482430006824
:10109000091D0860514828300068091D08604F4844
:1010A0002C300068091D08604C48303000684C49FD
:1010B00040310860494834300068091D08604748DD
:1010C00038300068091D086044483C300068091D3C
:1010D0000860424840300068091D086000F00CFEBE
:1010E00030B139481430006800F04F003D490860C5
:1010F00037487438006840F4700035497439086026
:1011000000BF00BF00BFBFF34F8F00BF00BF00BFD5
:1011100000BF00BF00BFBFF36F8F00BF00BF00BFA5
:101120003148006800F0004030B92F48001D0068C9
:1011300000F00040002840D001202C49086000BF8A
:101140002B4800680028FBD015202749086000BF05
:10115000274800680028FBD015212348001D0160A6
:1011600000BF234800680028FBD000201F4908600A
:1011700000BF1F4800680028FBD000BF00BF00BFB1
:1011800000BF00BFBFF34F8F00BF00BF00BF1048BC
:10119000F038006800F4E06016490843001D0C496F
:1011A000F039086000BF00BF00BFBFF34F8F00BF22
:1011B00000BF00BF00BF00BFFDE7FFF7EFFE10BD9F
:1011C0000DF0ADBA00C00740440200103C050040DD
:1011D000FCED00E00C01004010560040040400103B
:1011E00020C50040E40E00400012001004E501405C
:1011F00000E401400000FA0510B50422024903484A
:1012000000F0E9FE10BD00004C020020008000400C
:1012100010B504220249034800F0DDFE10BD0000B5
:10122000580200200090004010B5042202490348F3
:1012300000F0D1FE10BD00006402002000A00040BC
:1012400010B506220249034800F0C5FE10BD00009B
:101250007002002000A0014010B506220249034898
:1012600000F0B9FE10BD00007C02002000B001407B
:1012700010B50648007F20B10449054803F017F86F
:1012800003E00249024802F071FF10BD880200200D
:101290000020004008B501200B490968014009B150
:1012A000012100E0002101290DD100BF0020090229
:1012B000064A8850084611464058009000BF00BFBB
:1012C00003480068804708BD040301400000014056
:1012D0009C00002010B5124C02202061606111A01A
:1012E000A0611349E1614FF4007121620021A16204
:1012F0006162E1620BA0A0640E49E16410212165E6
:101300000021A1656165E1650BA1E01DFFF7CBF848
:101310000AA12046FFF7C7F82020A07110BD0000E9
:10132000D40400205465726D696E616C0000000089
:10133000C4020020C40400205254540053454747BF
:101340004552000010B501460A69CB689A4204D89C
:101350008C68641EE41AA01801E0D41A601E10BD47
:101360002DE9F0470446894617464FF0000AE56824
:1013700000BFD4F81080A84503D9A8EB0500461E8D
:1013800004E0A5EB0800401CA1680E1AA068401BF1
:10139000B04201D9304601E0A068401B0646BE427B
:1013A00001D2304600E038460646616848193246A8
:1013B0004946FFF75FF8B244B144BF1B3544A0680B
:1013C000A84200D10025E560002FD2D15046BDE8EB
:1013D000F0872DE9F047044689461546E668A0687F
:1013E000871BAF4208D9616888192A464946FFF72A
:1013F00041F87019E06010E0B8466168881942460B
:101400004946FFF737F8A5EB070809EB0701424605
:101410006068FFF72FF8C4F80C80BDE8F087000083
:101420000FB41CB50246002007AC00290BD0491EA2
:10143000CDE90021054B6A462146069800F018F8D0
:10144000009A002111701CBC5DF814FBD318000039
:1014500002E008C8121F08C1002AFAD1704770477D
:10146000002001E001C1121F002AFBD170470000DB
:101470002DE9FF4F8DB00F460546002606E02528D2
:101480000BD0DDE90F1290476D1C761C28780028E0
:10149000F5D111B03046BDE8F08F0024A246A14638
:1014A0000122EC4900E0044315F8013F203B02FA19
:1014B00003F00842F7D128782A2810D06FF02F02C5
:1014C0002878A0F13001092914D80AEB8A0102EB2F
:1014D000410144F0020400EB010A6D1CF0E701CF6A
:1014E0005FEA000A03D544F40054CAF1000A44F04C
:1014F00002046D1C28782E2817D115F8010F44F02E
:1015000004042A280ED06FF02F022878A0F13001B1
:1015100009290AD809EB890102EB410100EB010915
:101520006D1CF2E757F8049B6D1C28786C280FD0CF
:1015300006DC4C2817D068280DD06A2814D104E0A6
:10154000742810D07A280FD10DE044F400140AE07A
:1015500044F4801401E044F440146978814202D1DB
:1015600004F580146D1C6D1C2A786E2A1FD00CDCCB
:10157000632A31D004DC002A8BD0582A11D1A3E091
:10158000642A68D0692A0CD165E0732A2ED004DC65
:101590006F2A73D0702A04D19BE0752A6FD0782A05
:1015A0006ED01046DDE90F129047761C50E1C4F36F
:1015B0000250022806D0032809D0042801CF09D000
:1015C000066045E101CFF117C0E9006140E101CFBC
:1015D00006803DE106703BE117F8040B8DF8000032
:1015E00000208DF80100EB46012003E057F804BB12
:1015F0004FF0FF3061074FF0000102D40DE008F119
:101600000101884649450FDA8045F8DB1BF80810D0
:101610000029F4D108E008F1010188468142FADB93
:101620001BF808100029F6D1DDE90F23AAEB08000A
:101630008146214600F036F9304400EB080604E00C
:10164000DDE90F121BF8010B9047B8F10108F7D242
:1016500021464846F7E00A21C4F302534FF0000B3D
:101660000891022B04D001CFC117032B09D00AE047
:10167000FF1D27F00707F7E8020108E032E01FE04E
:1016800020E000B2C117042B01D140B2C117031EE4
:1016900071F1000307DA4FF0000CD0EB0C006CEB9B
:1016A00001012D2302E0230504D52B238DF82430DE
:1016B000012303E0E30701D02023F7E7984658E031
:1016C0000A2110E010210EE010204FF0000B0890CE
:1016D0000CE010214FF0000B44F004044FF0080917
:1016E000089103E008214FF0000B0891C4F3025366
:1016F000022B04D001CF0021032B06D006E0FF1DF2
:1017000027F00707F7E8020103E080B2042B00D1BD
:10171000C0B24FF0000823072BD5702A07D0DDF8A0
:1017200020C08CF0100C5CEA0B0C05D00EE04023BE
:101730008DF82430012308E050EA010306D030235D
:101740008DF824308DF8252002239846DDF820C03E
:101750008CF0080C5CEA0B0C0BD150EA010301D1B0
:10176000630706D530238DF824304FF00108A9F126
:101770000109582A04D038A20B9208AA0A920BE059
:101780003AA2F9E75B46089AFEF796FE0B9B9B5C34
:101790000A9A521E0A92137050EA0102F2D10A9874
:1017A000ADEB000000F1200B600702D524F480347B
:1017B00001E04FF00109D94502DDA9EB0B0000E083
:1017C000002000EB0B0141440890AAEB010AE00362
:1017D00006D4DDE90F232146504600F063F80644A5
:1017E0004FF0000908E009A911F80900DDE90F121E
:1017F000904709F10109761CC145F4DBE0030CD5E3
:10180000DDE90F232146504600F04CF8064404E081
:10181000DDE90F1230209047761C0899481E089089
:101820000029F5DC08E00A980A990078491C0A9119
:10183000DDE90F129047761CBBF10001ABF1010B03
:10184000F1DC21465046DDE90F2300F019F806448B
:101850006D1C1BE609280100303132333435363730
:1018600038396162636465660000000030313233EC
:10187000343536373839414243444546000000008C
:101880002DE9F041044600251E461746880404D47D
:1018900005E039462020B0476D1C641EF9D5284666
:1018A000BDE8F0812DE9F041044600251E46904632
:1018B000C80301D5302700E02027880404D505E0BF
:1018C00041463846B0476D1C641EF9D52846BDE830
:1018D000F0814A68002A06D00A68531C0B60107019
:1018E0004868401E4860704710A1012001F0EDFBE0
:1018F00000BF00BF00BF00BF00BFBFF34F8F00BFDE
:1019000000BF00BF0F48006800F4E0600E490843C4
:10191000001D0C49086000BF00BF00BFBFF34F8F20
:1019200000BF00BF00BF00BF00BFFDE74150505FD8
:101930004552524F523A4552524F523A46617461A3
:101940006C0D0A000CED00E00000FA053EB50446FF
:10195000002000900190029002946A46002144F217
:101960000100FFF7C1FF3EBD00B5024600F006F8DA
:1019700000BD00B5024600F00BF800BD72B603488A
:101980000068401C0149086070470000CC0000203E
:1019900004480068401E034908600846006800B912
:1019A00062B67047CC0000200246002901DA002010
:1019B00003E013680B4413600120704730B5024602
:1019C0000B4602210EE08C0042FA04F404F00F00F2
:1019D000092802DD00F1370401E000F13004C1F113
:1019E00001055C550C1EA1F10101ECD130BD0000D8
:1019F0004FF0FF31054A42F82010082804DBFF238E
:101A0000A0F1080150325354704700003801002003
:101A10000146024850F821007047000038010020BC
:101A20002DE9F04F03460C464FF0FF390AB1002074
:101A300000E0082084460AB1082000E00C2080461F
:101A4000614624E0154850F82100401CF0B91D46BD
:101A50000846274616464FFA80FBDFF840A00AF1F9
:101A6000300A0AF805B0DFF834A04AF820704EB901
:101A70004FFA85FBA0F1080ADFF820E00EF1500EC6
:101A80000EF80AB000BF4FFA81F902E0491C414547
:101A9000D8D300BF4846BDE8F08F000038010020D1
:101AA00001460148405670476801002070B5054660
:101AB0000DB9094C01E0084C083409E0204600F05B
:101AC000DDFA064606B904E028467168884700BF7B
:101AD000F4E700BF70BD00002C0100202DE9F047A5
:101AE00082461F480068002836D01D4800680568F7
:101AF00002F094F807461B4804682146384602F075
:101B00006DF9C61C1848007808B902F08DF8AE428D
:101B100001D2284600E03046044424F07F442046A9
:101B200002F076F802F07AF880463946404602F034
:101B300055F900F103093946204602F04FF9814575
:101B400009D902F06BF8814602F062F82F2000F00C
:101B500011FC02F0C1FA01E002F084F8BDE8F08760
:101B6000B0000020B4000020C800002090ED000A62
:101B7000BCEEC00A10EE102A4FF47A735A43642365
:101B8000B2FBF3F20A6090ED010ABCEEC00A10EE5F
:101B9000102A4FF47A735A436423B2FBF3F24A607B
:101BA0000A6812B900220A6006E00A68B2F57A7F74
:101BB00002D34FF47A720A604A6812B900224A606E
:101BC00006E04A68B2F57A7F02D34FF47A724A602F
:101BD00070472DE9FF4F03460C46002047E0225C8A
:101BE000FF2A3ED0C2F3C01922F080014DF8201028
:101BF000B9F1000F0DD05DF8201000BF4FF0A045E7
:101C00002E46012707FA01F5C6F8085500BF00BFA8
:101C10000DE05DF8201000BF4FF0A0452E460127D3
:101C200007FA01F5C6F80C5500BF00BF00BF5DF80C
:101C3000201001252E460027BC46B84600BF4FF0B5
:101C4000A04BDA4645EA460B4BEA870B4BEA0C2BD6
:101C50004BEA084E0AF5E06B4BF821E000BF00BFED
:101C600003E04FF0FF314DF82010411CC8B20428AA
:101C7000B5DB6D461A68002107E055F8217002F5C2
:101C8000AC6646F821704E1CF1B20429F5DB00BFAA
:101C9000BDE8FF8F014614480078144A127890423C
:101CA0001DD011480078401C0F4A10701046007873
:101CB000022801D1002010700D480B4A127850F80C
:101CC000220008600B4A086812681044094A106034
:101CD0001046006820F07F4010600120704700200F
:101CE000086000BFFAE70000C0000020C10000202B
:101CF000B8000020B400002013480078062820D146
:101D00001148001D007800F00F00D0B90E480830CF
:101D1000007800F0F000302801D1012070470A4817
:101D20000830007800F0F000402801D10120F5E7EC
:101D300005480830007800F0F000502801D101205B
:101D4000ECE70020EAE70000E00F00F00A48007826
:101D500006280ED10848001D007800F00F0040B999
:101D600005480830007800F0F000302801D101204B
:101D700070470020FCE70000E00F00F013480078F7
:101D8000062820D11148001D007800F00F00D0B9BE
:101D90000E480830007800F0F000302801D1012012
:101DA00070470A480830007800F0F000402801D160
:101DB0000120F5E705480830007800F0F0005028D1
:101DC00001D10120ECE70020EAE70000E00F00F07D
:101DD0000A48007806280ED10848001D007800F057
:101DE0000F0040B905480830007800F0F0003028B6
:101DF00001D1012070470020FCE70000E00F00F057
:101E000013480078062820D11148001D007800F002
:101E10000F00D0B90E480830007800F0F0003028EC
:101E200001D1012070470A480830007800F0F00026
:101E3000402801D10120F5E705480830007800F07E
:101E4000F000502801D10120ECE70020EAE7000073
:101E5000E00F00F00A48007806280ED10848001D5F
:101E6000007800F00F0040B905480830007800F015
:101E7000F000302801D1012070470020FCE700006D
:101E8000E00F00F00A48007806280ED10848001D2F
:101E9000007800F00F0040B905480830007800F0E5
:101EA000F000302801D1012070470020FCE700003D
:101EB000E00F00F00A48007806280ED10848001DFF
:101EC000007800F00F0040B905480830007800F0B5
:101ED000F000502801D1012070470020FCE70000ED
:101EE000E00F00F0F0B5034600241FE0124E30680A
:101EF00006689E4203D90668F61A06601AE006686C
:101F00009B1B06683444002606600B4E35680A4F5A
:101F1000C6693E60C66846B10E1926F07F46466027
:101F2000C66886601668C661156000BF0248006812
:101F30000028DBD100BFF0BDB000002070B5054621
:101F40000C461021284601F04CF968B14FF4887115
:101F5000284601F038F938B14FF48871284601F06D
:101F600039F90120216888472021284601F039F9F4
:101F700068B14FF48A71284601F025F938B14FF461
:101F80008A71284601F026F90220216888478021BD
:101F9000284601F026F968B14FF48E71284601F009
:101FA00012F938B14FF48E71284601F013F9002070
:101FB000216888474FF48271284601F004F948B13E
:101FC0004FF48271284601F005F9012020710320A9
:101FD0002168884770BD2DE9F04704460E469046BB
:101FE000002722E0384601F003FA0546384601F0A2
:101FF00006FA81462046294642580AB1012200E0ED
:10200000002282B14846D4F80413014009B10121ED
:1020100000E0002139B12946204601F0F5F92846B3
:10202000D6E900219047781CC7B24745DADBBDE806
:10203000F087000010B50446204600F009FC044972
:102040000968084008B1012010BD0020FCE700002D
:102050007C00002070B50446204600F0F9FB0546E0
:10206000012070BD10B50446204600F0F1FBC0F31E
:10207000130008B1012010BD0020FCE701460868EC
:1020800008B102680A60704770B51C4804781C48A3
:10209000066827E01948406804EB440100EBC105DD
:1020A000601CC4B215488078A04200D10024287872
:1020B000022802D0032812D103E0686801F08AFFE9
:1020C0000EE007E00E490868002101740C4AC1695E
:1020D000116000BF0A4800680028F3D100E000BF8B
:1020E00000BF00BF05484078A042D3D10448006833
:1020F000B04201D0012070BD0020FCE7A800002004
:10210000B00000202DE9F0410546374807685AE045
:1021100015B12C46E56929E034494968334A1278FB
:1021200002EB420201EBC20030490978491C2F4AF8
:102130001170114609789278914202D100212B4A00
:10214000117044680178012901D1217C01B13AE084
:1021500081686160C168A1600169E1604169A16154
:102160002349097809B10021616000BF21496068F5
:102170000968401A20F07F401F49884208D21D4953
:102180006068096801F02AFEA168084420600FE039
:1021900018486168006801F021FE0646A068B04258
:1021A00003D9A068801B206001E00020206000BFF0
:1021B00000206060A060012020740020E0612046C3
:1021C00001F0D4FE00BF002DA2D1084800780749D5
:1021D000497888429CD104480068B84202D0012066
:1021E000BDE8F0810020FBE7B0000020A80000203F
:1021F000C9000020B4000020FFFF7F0000F098FF1E
:1022000011A1032000F061FF132001210A460024E0
:102210002346254600BF4FF0A0473E4641EA42070D
:1022200047EA840747EA032747EA054C06F5E067D3
:1022300047F820C000BF00BF01F0D4FA00F02CF82E
:1022400001F012FE00BFFEE73A494E464F3A0A0A35
:10225000496E6974696174696E6720616C6C207382
:10226000797374656D732E200A00000010B5044662
:10227000207A18B1102000F020FD02E0102000F0BC
:1022800005FD607A18B10F2000F017FD02E00F2065
:1022900000F0FCFC10BD00003EB5124A07CA8DE8F4
:1022A0000700102000F0C1FC0F2000F0BEFC0E4A19
:1022B00069460E4800F0DCFA044600BF254625B109
:1022C00000BF2846FFF742FB00BF00BF00200849BF
:1022D000088048808880C88006A1132000F0F5FEA1
:1022E0003EBD0000C44300000D3500000800002082
:1022F000100000204D6F746F722050574D20696E92
:10230000697469617465642E200A00001FB5054B6D
:102310000FCB8DE80F00022301226946024800F02E
:1023200001FB1FBDD04300000800002030B502466D
:102330000B46D40802F00702012090401D5D2840A2
:1023400030BD01464FF08040405808B10120704731
:102350000020FCE708B500224FF080410A500958E0
:10236000009100BF08BD00000149086070470000EF
:102370000803004000B9704700BF00BF00BF00BFA6
:1023800000BF00BF00BF00BF00BF1E4909681E4A52
:10239000914200D130E000BF00BF00BF00BF00BFCE
:1023A00000BF00BF00BF00BF00BF00BF00BF00BF35
:1023B00000BF00BF00BF00BF00BF00BF00BF00BF25
:1023C00000BF00BF00BF00BF00BF00BF00BF00BF15
:1023D00000BF00BF00BF00BF00BF00BF00BF00BF05
:1023E00000BF00BF00BF00BF00BF00BF00BF00BFF5
:1023F00000BF00BF00BF00BF401E00D0BDE700BF50
:10240000B9E70000D40000200024F40010B54FF418
:102410008070FFF796FF60B14FF48070FFF79AFF6E
:102420000120FFF7A1FF01200B4948700020FFF7B2
:102430003DFB4FF48270FFF784FF58B14FF4827078
:10244000FFF788FF0220FFF78FFF01200249887005
:10245000FFF72CFB10BD00002401002070B50B46D7
:1024600001461A46002907DA5407260E104C01F0DF
:102470000F052D1F665503E05407250E0D4C6554BE
:1024800000BF00BF00F01F02012191400A4A440929
:1024900042F8241000BF00BF00F01F02012191404C
:1024A0004209920002F1E022C2F8001100BF70BDA3
:1024B00018ED00E000E400E080E200E00146C1F336
:1024C000073250B270470146C1F3073250B270472D
:1024D00070B504464FF4BE75204601F001F830B1E6
:1024E0002046FFF7DDFA800000F5807085B22846AF
:1024F00000F002FC70BD00002DE9F04706460D46D5
:10250000304600F0E1FFE0B13046FFF7C9FA083885
:1025100022490F5CBC11032C08D1304600F0C1FBEE
:1025200008B1032000E00220804605E0012C01D123
:10253000022000E0032080464146304600F08DFB3B
:102540002AE0304600F0CCFF30B33046FFF7A8FA5F
:102550000446A00000F5807087B22046104951F86B
:10256000201041F001020E4941F8202000BF3846FA
:1025700000F0C8FB7DB13046FFF792FA8146FFF7C5
:1025800047FA8046B8F1000F04D0012101FA04F0A7
:1025900000F0D2FB00BF00BFBDE8F087880100203B
:1025A000106500402DE9FC4704460E4617464FF0E3
:1025B0000008204600F07AFF10B14FF0080855E0FF
:1025C000F27839462046FFF72BFA0546681C0028AA
:1025D00049D0B07880B100BF00BF4FF0A042104694
:1025E00000F5E06252F8242022F0020100F5E062DA
:1025F00042F8241000BF0CE096F8019000200090F3
:102600004B46024601460190204600F0FAFA00BF10
:1026100000BFF078D0B13078164951F82510164A2D
:102620001140144A42F82510114651F825104FF474
:10263000F85202EA04224FF4403303EA00431A43FB
:1026400011430C4A42F8251000BF0EE0A5F1080026
:102650000A49085C317840EA811042B2A5F10800CD
:1026600006490A5401E04FF0040800BF4046BDE8A7
:10267000FC87000010650040FFE0FCFF880100209F
:1026800070B5164890F8540010B10825284670BD62
:10269000002404E0204600F033FF601CC4B2202C6C
:1026A000F8DB002404E02046FFF7A2F9601CC4B266
:1026B0000C2CF8DB07210620FFF7D0FE4FF4BE708C
:1026C00000F020FB4FF0004000F036FB01200349F2
:1026D00081F8540000252846D9E700003801002081
:1026E000034890F8540008B1012070470020FCE72F
:1026F0003801002010B500BF13480068044604F0FC
:10270000040038B14FF4847000F046FD10B10F485A
:102710000068804704F0200040B14FF48A7000F058
:102720003BFD18B100200A490968884704F04000C1
:1027300040B14FF48C7000F02FFD18B10120044916
:102740000968884710BD00000403004070000020A5
:10275000740000202DE9F0410646002700250427DB
:10276000154D002422E00020FFF7FEF8204600F07F
:102770006FF8284078B12046FFF75CFC58B900BFDD
:10278000204600F065F80D49096808430B490860C8
:1027900000BF347000270020FFF7EBF807B907E00F
:1027A000204600F055F88543601CC4B2002DDAD1F4
:1027B00000BF3846BDE8F081FFFF0F007C0000201D
:1027C0002DE9F04106460C46154600BF14B90E200F
:1027D000BDE8F08100BF00BF0DB90E20F8E700BFD3
:1027E00000273046FFF73EFC08B907270EE03046C9
:1027F000FFF720FC08B9082708E000BF044840F8AC
:10280000364000EBC600456000BF00BF3846DFE73A
:1028100010F5014070B5044600252046FFF71AFC6C
:1028200008B9072510E02046FFF71CFC28B1204618
:10283000FFF700FC08B9082506E000BF0120A04012
:102840000249086000BF00BF284670BD04F5014082
:1028500001460120884070470449097821B90121C7
:10286000024A1170002000E08520704778000020A7
:102870002DE9F04704460D4690462079284901EBA2
:10288000C006307918B108273846BDE8F087C6F889
:10289000008029462046FFF79CF920680121C0F8F6
:1028A000001500BF6979AA792B892068C0F80C153A
:1028B000C0F80425C0F8083500BFA97AEA7A206874
:1028C00041EA0223C0F8103500BF0021206800F063
:1028D000B5FC0021206800F08DFC4FF48E7120685B
:1028E00000F078FC4FF48871206800F073FC4FF41E
:1028F0008A71206800F06EFC4FF48271206800F04D
:1029000069FC306830B12068FFF7D8FD814629792D
:10291000FFF7A4FD0120307100273846B5E700001D
:10292000B40100202DE9F05F0446894615461E4695
:1029300020791C4901EBC00A4A460021206800F0BA
:102940005FFC4A460121206800F05AFC05F00107AF
:10295000AB4605EBDB7207EB620291B2206800F038
:102960004CFC06F0010010B14FF010080AE006F030
:10297000020028B10FB1082000E00420804601E0E9
:102980004FF000084146206800F058FC0FB10C20C1
:1029900000E008200346F2B25146204601F0F4F967
:1029A000BDE8F09FB401002001200449086000BF89
:1029B00000BF0349086000BF7047000008D3004013
:1029C00004D000402DE9F04781460C4616464FF4EE
:1029D00080374FF4A078002520E03946484600F0C3
:1029E000DDFCA8B14146484600F0D2FC80B1394632
:1029F000484600F0CAFC3946484600F0CCFC414647
:102A0000484600F0BBFCE8B21B4A52F82410884745
:102A10007F0008F104001FFA80F86D1CB542DCD37A
:102A20004FF480780121484600F0B8FC68B1414677
:102A3000484600F0ADFC40B14146484600F09EFCDF
:102A40000D4850F82410042088474FF48278022162
:102A5000484600F0A3FC68B14146484600F098FCA7
:102A600040B14146484600F089FC034850F8241024
:102A700005208847BDE8F0878C00002070B504462B
:102A80000D46601E074931F81000A843611E054A33
:102A900022F81100601E044951F8202029462046E2
:102AA000904770BD400200202C0200202DE9F0412B
:102AB00005460C4616461F46204600F0A0FC804600
:102AC00027B14146286800F0A9FC03E04146286888
:102AD00000F0A1FC286800F5A86141F8246000BF5F
:102AE000BDE8F08110B504460021206800F09FFC8D
:102AF0000220217901EB4101024A02EB81010872B7
:102B000010BD00004C0200202DE9F04105460E46A4
:102B100017461C46DDF818804FF48072B24001233E
:102B2000B34042EA0301286800F07BFC2868D0F833
:102B300000122143C0F8001200BF43463A46314616
:102B40002846FFF7B3FFBDE8F08100002DE9F0470C
:102B500004460D469146207900EB4000254901EBE3
:102B60008006307A18B108273846BDE8F087B9F1F9
:102B7000000F02D107273846F7E7C6F800906868CB
:102B800070604FF000080BE0404600F031FC8246D8
:102B90005146206800F038FC08F1010000F0FF0801
:102BA00060794045F0DC2068FFF78DFC8246E978CB
:102BB000FFF754FC69782068D0F8042561F301021E
:102BC000C0F8042500BFA9782068D0F8082561F373
:102BD0000102C0F8082500BF29782068D0F8102528
:102BE00061F30302C0F8102500BF012030720027F6
:102BF0003846BAE74C0200200246106843181846CF
:102C00007047F0B5DDE9054500BF4FF0A0473E46EF
:102C100041EA420747EA830747EA042747EA054CA7
:102C200006F5E06747F820C0F0BDF0B501210A467F
:102C300000231C461D4600BF4FF0A0473E4641EA18
:102C4000420747EA830747EA042747EA054C06F5A7
:102C5000E06747F820C000BFF0BD10B50A4600BFCE
:102C60004FF0A043194601F5E06353F8203023F4F8
:102C7000403401F5E06343F8204053F8203043EA44
:102C8000024401F5E06343F8204010BD00BF4FF05F
:102C9000A0410A46012303FA00F1C2F80C1500BF57
:102CA0007047014600BF4FF0A040024600BFD2F877
:102CB0001005C84000F00100704700BF4FF0A04170
:102CC0000A46012303FA00F1C2F8081500BF704755
:102CD00038B50B46074C24680094014606E05DF8C1
:102CE0002140D4F810551560121D491CC4188C429F
:102CF000F5D838BDE4430000014601480844704758
:102D00000060004038B504462046FFF7F5FF00217B
:102D100001602046FFF7F0FF0068009000BF38BD5B
:102D200010B504462046FFF7E7FF0068012800D1F0
:102D300010BD0020FCE7000001490860704700005A
:102D4000046300400246505808B10120704700203B
:102D5000FCE708B5002242504258009200BF08BD6F
:102D6000C0F838157047C0F84015704700487047E4
:102D7000A52D000010B504460848007828B1084881
:102D80000078844201D1002010BDFEF76BF80120CD
:102D900002490870024804700020F5E7D0000020C6
:102DA000D10000202DE9F04FC9B0894692469846DF
:102DB000DDF84CB1002006904646559858440590E1
:102DC000B9F1000F01D00A2000E00020049000F0CB
:102DD000A3FF18B1404649B0BDE8F08FB8F1000F2D
:102DE0001DD109A8069A811806AA484601F07AF969
:102DF00008B94046EFE75046FDF74EFB0746C22FA5
:102E000001D9C22000E03846074609A9069A881869
:102E10003A465146FDF72EFB06983844069000BF0F
:102E2000069802900298313004990844019009A94B
:102E300002980C1801980D180020039005E020203E
:102E40002070641C0398401C0390DDE90301884254
:102E5000F5D30020079030E00598864209D3202062
:102E600004F8010B04F8010B04F8010B05F8010B41
:102E700020E05E4503D25298805D089004E0A6EB06
:102E80000B015498405C089021460898FEF796FD87
:102E9000A41C202004F8010BFDF7E8FA016808984B
:102EA000085C00F03E0008B1089800E02E2005F80C
:102EB000010B761C0798401C079007981028CBD36D
:102EC0000D2005F8010B0A2005F8010B202004F85D
:102ED000010B0498433006990844069009A8069906
:102EE00000F01CFF08B9304675E700F015FF08B187
:102EF000304670E7002006900598864290D3304611
:102F000069E72DE9F04FC7B083460F4615461C46CA
:102F1000DDF840810026002006904FF0010A00F005
:102F2000FBFE18B1002047B0BDE8F08F07A8069A55
:102F3000811806AA384601F0D5F808B90020F2E752
:102F4000B8F1070F6FD2DFE808F0041422324458BA
:102F50006F002846FDF7A0FA064606983044FF2881
:102F600006D807A9069A881832462946FDF782FA3C
:102F700073E02368069AC2F5807107AADDF818C0CD
:102F800002EB0C002A46FEF74BFA064665E0606845
:102F900000902368069AC2F5807107AADDF818C070
:102FA00002EB0C002A46FEF73BFA064655E0D4E950
:102FB0000101CDE900012368069AC2F5807107AAD4
:102FC000DDF818C002EB0C002A46FEF729FA064687
:102FD00043E0D4E902216068CDE901210090236833
:102FE000069AC2F5807107AADDF818C002EB0C0042
:102FF0002A46FEF715FA06462FE0D4E90123D4E964
:103000000310CDE90023CDE902102368069AC2F52A
:10301000807107AADDF818C002EB0C002A46FEF703
:10302000FFF9064619E017E0D4E90223D4E90410B9
:10303000CDE90123CDE90310606800902368069A6A
:10304000C2F5807107AADDF818C002EB0C002A4611
:10305000FEF7E6F9064600E000BF00BF314606A8CD
:10306000FEF7A2FC8246DDF81890BAF1000F07D0F7
:10307000B9F5807F04D807A8069900F04FFE52E703
:10308000002050E700487047032F00002DE9F84367
:1030900007460C4615461E464FF00009C84605482F
:1030A00000962B4622464146D0F814C03846E047E9
:1030B000BDE8F883A802002030B503460C4615464B
:1030C0002146184600F02EF830BD70B504460D4676
:1030D00000231A4629462046FFF7D8FF70BDF8B5F1
:1030E00005460E461446009401236A46314628469A
:1030F000FFF7CCFFF8BD2DE9FF4706460F46144603
:103100001D46DDE90C8900940195CDF80880CDF8C5
:103110000C9004236A4639463046FFF7B7FFBDE8F6
:10312000FF870000014A506191617047A8020020AA
:103130002DE9F041054600BF0120FFF71BFE0446C4
:103140004CB9FFF713FE0646FFF79CFF07462A46D9
:103150003146FFF7B1FF2046BDE8F081024A10601A
:10316000121D11607047000060D501400146034800
:10317000085808B1012070470020FCE700D001404A
:1031800008B50021034A815011464158009100BF03
:1031900008BD000000D0014001460846014601F18B
:1031A00080431B680BB1012300E000231A4600BFD7
:1031B0003AB100BF00BF01F180400023036000BFAF
:1031C00000BF104670470246505808B101207047B2
:1031D0000020FCE708B5002242504258009200BF90
:1031E00008BD0246D2F80403084008B10120704728
:1031F0000020FCE7C0F800137047C0F814157047B2
:1032000010B5136800F5A46404EB4114236000BFFB
:10321000938800F5A46404EB4114636000BF9368D5
:1032200000F5A46404EB4114A36000BFD36800F56B
:10323000A46404EB4114E36000BF10BDC0F80012A9
:10324000704701224250704708B50021034A81505F
:1032500011464158009100BF08BD00000020014008
:1032600001460248006808407047000004230140FE
:1032700010B5044620684168204600F008F821682F
:103280000968884201D1012010BD0020FCE70246F8
:103290009068884201D9481C70470020FCE72DE95E
:1032A000F04704460D464FF000090020FEF75CFB96
:1032B0002046FFF7DDFF8046B8F1000F02D0207CEA
:1032C000002846D120684668206841682046FFF7FC
:1032D000DEFF21684860B8F1000F06D02068016861
:1032E0002046FFF7D4FF21680860E068012806D077
:1032F000022808D004280BD0082815D10DE0287822
:103300006168885519E02888616821F8160014E082
:103310002868616841F826000FE0D5E9000162687D
:1033200002EBC60203C208E0E368616806FB031013
:103330001A462946FDF79EF800BF00BF204600F060
:10334000E6F8074620688168B94201D220688760A4
:1033500001E04FF004090020FEF70BFB4846BDE8F2
:10336000F087000008B50021034A815011464158FA
:10337000009100BF08BD000000D0004008B5002249
:1033800042504258009200BF08BDC0F84813704731
:10339000024650587047C0F8081370470246D2F8EA
:1033A0000403084070470000024A1060121D1160BB
:1033B000704700002C76004001460348085808B1C9
:1033C000012070470020FCE70070004008B5002194
:1033D000034A815011464158009100BF08BD0000CA
:1033E000007000400121014A815070470070004088
:1033F00001464FF4A07000EB810080B27047014697
:103400004FF480308840704708B50022425042583F
:10341000009200BF08BDC0F808137047C0F804133D
:103420007047D0F800228A43C0F80022704701227A
:10343000425070470146D1F88004C1F880047047BB
:103440000246505808B1012070470020FCE708B53B
:10345000002242504258009200BF08BDC0F8081335
:1034600070470246D2F80403084008B101207047B3
:103470000020FCE70122425070470146D1F8800449
:10348000C1F8800470470246505808B101207047C7
:103490000020FCE708B5002242504258009200BFCD
:1034A00008BD014640F23C5040587047014605486F
:1034B0004056012202EBE07008B101207047002065
:1034C000FCE7000068010020014604484056082837
:1034D00001DB012070470020FCE7000068010020AC
:1034E000014606484056002805DB04484056082897
:1034F00001DA012070470020FCE70000680100208D
:10350000FF2201490A5470476801002070470146B4
:10351000086840680A681268904205D308684068E5
:103520000A681268801A70478868401C0A68126826
:10353000801A0A6852681044F5E7000030B101288B
:1035400015D0022824D0032844D132E0224909684A
:1035500000EE101AB8EE400A2049D1ED000A20EE24
:10356000200ABCEEC00A1E4981ED000A32E01D4966
:10357000096800EE101AB8EE400A1849D1ED000AA9
:1035800020EE200ABCEEC00A154981ED010A21E0B7
:103590001549096800EE101AB8EE400A0F49D1ED3E
:1035A000000A20EE200ABCEEC00A0D4981ED020A95
:1035B00010E00E49096800EE101AB8EE400A0749FB
:1035C000D1ED000A20EE200ABCEEC00A044981EDCC
:1035D000030A00BF00BF7047449500403800002038
:1035E000F400002048A500404CA5014050B5014022
:1035F00030B1012815D0022824D0032844D132E06C
:103600002849096800EE101AB8EE400A2649D1EDA3
:10361000000A20EE200ABCEEC00A244981ED040A0B
:1036200032E02349096800EE101AB8EE400A1E493C
:10363000D1ED000A20EE200ABCEEC00A1B4981ED44
:10364000050A21E01B49096800EE101AB8EE400A8D
:103650001549D1ED000A20EE200ABCEEC00A13493C
:1036600081ED060A10E01449096800EE101AB8EE60
:10367000400A0D49D1ED000A20EE200ABCEEC00A36
:103680000A4981ED070A00BF00BF0849103151F80F
:103690002010064A52F820208A1A0449203141F8A5
:1036A00020207047449500403C000020F40000209A
:1036B00048A500404CA5014050B5014001460020FE
:1036C00018E00E4A52F8202000EE102AB8EE400A08
:1036D000DFED0B0A30EE600ADFED0A0A20EE200A69
:1036E000DFED070A80EE201A01EB800282ED001A5E
:1036F000421CD0B20428E4DB704700001401002013
:1037000000007A440000C84238B5FEF7E9FF10B95E
:10371000FEF7B6FF044600BF254625B100BF284688
:10372000FEF714F900BF00BF234800680090012095
:103730008DF80100214A69460B20FEF733FF04464D
:1037400000BF254625B100BF2846FEF7FFF800BFA1
:1037500000BF1A4A69460C20FEF724FF044600BF4A
:10376000254625B100BF2846FEF7F0F800BF00BF90
:10377000124A69460D20FEF715FF044600BF254694
:1037800025B100BF2846FEF7E1F800BF00BF0B4A95
:1037900069460E20FEF706FF044600BF254625B108
:1037A00000BF2846FEF7D2F800BF00BF04A11320D7
:1037B000FFF78BFC38BD0000E04300003D380000FF
:1037C000526164696F20636F6E74726F6C6C6572A6
:1037D000204750494F544520656E61626C65642EE8
:1037E000200A000010B500F0A5F9FFF78DFF00F0EA
:1037F000A1F801210B20FEF77FFE01210C20FEF72E
:103800007BFE01210D20FEF777FE01210E20FEF741
:1038100073FE02A11320FFF758FC10BD52616469CA
:103820006F20636F6E74726F6C6C657220696E6965
:103830007469617465642E200A0000002DE9FC4162
:1038400006460F460B2E06D00C2E12D00D2E1ED083
:103850000E2E38D129E000252848007818B901201B
:103860002649087002E000202449087023480478A3
:1038700029E001252248007818B901202049087064
:1038800002E000201E4908701D4804781BE0022554
:103890001C48007818B901201A49087002E000207D
:1038A00018490870174804780DE003251648007879
:1038B00018B901201449087002E00020124908706C
:1038C0001148047800BF00BF012C03D12846FFF740
:1038D00035FE10E07CB92846FFF78AFE0B48C06A27
:1038E0000A49896ACDE900100848436A08A1026ABA
:1038F0001320FFF700FCBDE8FC8100004000002021
:10390000410000204200002043000020F40000207D
:103910004368616E6E656C2076616C7565733A20E4
:103920002564202D202564202D202564202D202590
:1039300064200A002DE9F04F87B0FEF78DFF0446A2
:1039400000BF254625B100BF2846FDF7FFFF00BF99
:1039500000BF06A8FEF7FEFE044600BF254625B1BF
:1039600000BF2846FDF7F2FF00BF00BF05A8FEF725
:10397000F1FE044600BF254625B100BF2846FDF7ED
:10398000E5FF00BF00BF04A8FEF7E4FE044600BF49
:10399000254625B100BF2846FDF7D8FF00BF00BF70
:1039A00003A8FEF7D7FE044600BF254625B100BF99
:1039B0002846FDF7CBFF00BF00BF0B20FEF788FDB8
:1039C00006460C20FEF784FD07460D20FEF780FD1D
:1039D00080460E20FEF77CFD814644214848FFF7D3
:1039E0000BF9824648214748FFF706F983464C21E8
:1039F0004548FFF701F9029050214448FFF7FCF8D1
:103A00000190524631469DF81800FEF7D9FE044653
:103A100000BF254625B100BF2846FDF797FF00BF30
:103A200000BF5A4639469DF81400FEF7C9FE044609
:103A300000BF254625B100BF2846FDF787FF00BF20
:103A400000BF41469DF81000029AFEF7B9FE0446F9
:103A500000BF254625B100BF2846FDF777FF00BF10
:103A600000BF49469DF80C00019AFEF7A9FE0446E6
:103A700000BF254625B100BF2846FDF767FF00BF00
:103A800000BF9DF81800FEF7C5FE044600BF25469E
:103A900025B100BF2846FDF759FF00BF00BF9DF8C4
:103AA0001400FEF7B7FE044600BF254625B100BF4F
:103AB0002846FDF74BFF00BF00BF9DF81000FEF742
:103AC000A9FE044600BF254625B100BF2846FDF7E4
:103AD0003DFF00BF00BF9DF80C00FEF79BFE0446B3
:103AE00000BF254625B100BF2846FDF72FFF00BFC8
:103AF00000BF07A11320FFF7E8FA07B0BDE8F08F79
:103B000018000020200000202800002030000020A5
:103B100050504920696E69746961746564206F6EE4
:103B200020666F7572206368616E6E656C732E20FF
:103B30000A00000070B5264A26492748FFF706F814
:103B4000044600BF254625B100BF2846FDF7FEFE0E
:103B500000BF00BF1E4A1F492048FEF7F7FF04467A
:103B600000BF254625B100BF2846FDF7EFFE00BF88
:103B700000BF174A17491A48FEF7E8FF044600BF7E
:103B8000254625B100BF2846FDF7E0FE00BF00BF77
:103B90000F4A10491348FEF7D9FF044600BF2546D7
:103BA00025B100BF2846FDF7D1FE00BF00BF0A487F
:103BB000FEF798FF0948FEF795FF0948FEF792FFC8
:103BC0000848FEF78FFF08A11320FFF77EFA70BDAB
:103BD0000D3C0000440000201800002020000020C0
:103BE0002800002030000020526164696F20636F5C
:103BF0006E74726F6C6C65722074696D657273207F
:103C0000656E61626C65642E200A000070470000DA
:103C100001490860704700004015014001480068F4
:103C2000704700000415014010B54FF480300A4978
:103C300008600A49C1F804031120FCF7B3FE112003
:103C4000FCF7BCFE0120054908602F20FEF792FB1F
:103C500001200349087010BD4413014000100140C9
:103C6000C800002010B51120012181400E4A4309EF
:103C700042F8231000BF4FF480300C4908600C4913
:103C8000C1F80803012048602F20FEF773FB0120D4
:103C9000074988600020074908602F20FEF76AFB6B
:103CA00000200549087010BD80E100E04813014084
:103CB00000100140B4000020C800002070B5054687
:103CC0000C46E07D40B94FF484712846FFF7BFFBF6
:103CD00000BFD5F8180570BD4FF484712846FFF772
:103CE000B6FB00BFD5F81805C0B2627EE168885403
:103CF000607E401C607600BFEDE77FB504460D4650
:103D0000164601208DF800008DF80850019668468F
:103D1000D4E9001290477FBD002070472DE9F0479D
:103D200006460F464FF0010A4FF000083D464FF09F
:103D30000A0900BF06EB08012A460020FDF79EF89D
:103D40000446A0442D1B2CB9A9F10109B9F1000FBB
:103D500000D101E0002DEDD100BF5046BDE8F08755
:103D600010B504462046FEF781FA2068C0F57A7047
:103D7000044908806068C0F57A704880FEF7C6FA8A
:103D800010BD0000100000202DE9F04104460F4650
:103D900015469846022038713868A0B1822605F091
:103DA000040008B146F0100605F0080008B146F01E
:103DB000200605F0100008B126F080063146206884
:103DC000FFF718FA00BF4FF482712068FFF702FA7C
:103DD00041462068FFF735FABDE8F0810246501AE7
:103DE00020F07F407047000070B504460B48006823
:103DF00078B10A4AD4E9050112689047054600BF28
:103E00002E4626B100BF3046FDF7A0FD00BF00BF23
:103E100002E0D4E90510884770BD0000C40000200E
:103E200070B504460D46132000BF4FF0A04319465D
:103E3000D1F80425012383409343C1F808350123B9
:103E400083401340C1F80C3500BF0548FFF736FC2E
:103E500004490348FDF78AFE0248FFF781FF70BD61
:103E6000D8000020E8000020F8B53224164A17498F
:103E70001748FEF76BFE064600BF374627B100BF66
:103E80003846FDF763FD00BF00BF00BF104A116850
:103E9000D1F8100500BF01464FF47A52624322FA6E
:103EA00001F500BF00BF012003462A460021009013
:103EB0000748FEF729FE0648FEF714FE05A1132069
:103EC000FFF703F9F8BD0000213E000000000020CC
:103ED000BC4300004D61696E2074696D6572206598
:103EE0006E61626C65642E200A200A20436F6D6D3E
:103EF000656E63696E6720636F6E74726F6C2061AC
:103F00006C676F726974686D2E200A002DE9FC41A0
:103F1000002001900F4804680F4807686846FDF7C5
:103F2000B9FE0546FEF7B0F806462DB101AA2146B6
:103F30000098FDF7D7FF01260198FEF7E3F800B1DE
:103F4000012616B13846FDF7C9FD00200349087067
:103F5000BDE8FC81B4000020B0000020C9000020B2
:103F600010B51420FCF736FD10BD000010B518493F
:103F7000096811B91649086028E0154A01681268F5
:103F8000126891420DD81249096809680268891AB5
:103F90000F4A126811600E490968C1610C49086036
:103FA00014E002680A4C2368216803E00C68121BC5
:103FB0000B46C96911B10C689442F7D311B10C6872
:103FC000A41A0C600260C161D86100BF10BD00007E
:103FD000B000002030B50246154C2168084604E0C8
:103FE000904200D103E00146C0690028F8D100BF2B
:103FF00000B930BD814210D10D4C2468E4690C4DEC
:104000002C602C46246844B901240A4DAC6000247D
:10401000094D2C600124094D2C700368C469CC61E2
:10402000C86910B104681C44046000BFE1E70000E7
:10403000B000002000100140B4000020C9000020A2
:104040002DE9F0411F480068002838D00027FFF70D
:10405000E5FD80461C4801684046FFF7BFFE064666
:104060001848056810E02868B04200D90EE02868BA
:10407000361A286807442C46ED69207C20B10020C0
:1040800020742046FFF7B0FE002DECD100BF0F4892
:1040900000780F490978884209D10D480078401C02
:1040A000C0B20B490870022801D1002008700948ED
:1040B0000749097840F82170FFF752FF00BFBDE8BB
:1040C000F0810000B0000020B4000020C0000020FB
:1040D000C1000020B800002010B51120FCF77AFCC8
:1040E00010BD00002DE9F04104460E46154600279C
:1040F0004FF001086CB1F01908A24FF480712368E9
:10410000FDF78EF9074639462846FDF74DFC8046F7
:1041100001E0002028604046BDE8F0815B25303892
:10412000645D000070B505460C464FF48E7128465C
:10413000FFF78DF9A18AA068465CA08A401CA08286
:104140003046C5F81C0500BF70BD7FB504460D465E
:1041500000208DF800008DF80850A0680190002024
:10416000A0756846D4E9001290477FBD2DE9FF4154
:1041700005460C464FF400712846FFF772F948B324
:104180004FF492712846FFF75BF918B34FF4927120
:104190002846FFF75CF94FF401712846FFF75EF9F6
:1041A000A07E18B904212846FFF764F902208DF893
:1041B00000002846FFF73EF90390E17D8DF80810D6
:1041C000E06801900020E07520766846D4E900128E
:1041D000904736E004212846FFF743F9002830D005
:1041E0004FF484712846FFF72BF950B32146284637
:1041F000FFF764FDE07D617E884222D1207E70B1B0
:10420000E668677E207EE0752069E0600020207609
:104210006076324639462046FFF76FFD11E0A07EFA
:1042200018B904212846FFF725F94FF401712846F3
:10423000FFF714F90020E075617EE2682046FFF781
:104240005CFD4FF48E712846FFF7FAF898B1A08A0A
:10425000A17D884204DA21462846FFF763FF0AE081
:104260004FF48E712846FFF7F2F8A07D18B1A17DBA
:104270002046FFF76AFF4FF4A2712846FFF7E0F8E7
:1042800098B14FF4A2712846FFF7E1F8A07E18B16B
:1042900000212846FFF7EEF8E07D30B10020E07500
:1042A000617EE2682046FFF728FDBDE8FF812DE929
:1042B000FF4105460C464FF492712846FFF7E3F89C
:1042C000D8B14FF492712846FFF7E4F802208DF838
:1042D00000002846FFF7D1F803902846FFF7E1F8E1
:1042E000C1B28DF80810E06801900020E0752076DA
:1042F0006846D4E9001290472FE04FF488712846B1
:10430000FFF7C1F848B34FF488712846FFF7C2F8A9
:104310002846FFF7C6F8C6B2E07DB0421CD1207E29
:1043200098B1E7682020D5F800128143C5F8001243
:1043300000BF207EE0752069E060002020763A46CC
:1043400031462046FFF7D9FC06E00020E0753146F3
:104350002046E268FFF7D1FC00BF4FF4A271284667
:10436000FFF791F888B14FF4A2712846FFF792F851
:10437000E07D50B10020E0752846FFF792F8C6B204
:1043800031462046E268FFF7B8FC4FF490712846AA
:10439000FFF779F878B14FF490712846FFF77AF873
:1043A000A07D40B100BF40F24C504059C6B23146EA
:1043B0002046FFF7CAFEBDE8FF81000000800040F4
:1043C000000400001211FFFF00000000E8030200DB
:1043D00010000020040000000000000000000000A9
:1043E00003000001000000506E72665F6472765F29
:1043F0006770696F74655F696E6974006E72665F7D
:104400006472765F6770696F74655F6F75745F69FA
:104410006E6974006E72665F6472765F6770696F52
:1044200074655F696E5F696E69740000F001002059
:10443000CC0100202000000001000000000000006E
:1044400000076E72665F6472765F726E675F627994
:104450007465735F617661696C61626C65006E7230
:10446000665F6472765F726E675F72616E64000091
:104470004040404040404040404141414141404037
:10448000404040404040404040404040404040402C
:1044900005020202020202020202020202020202F9
:1044A00020202020202020202020020202020202C0
:1044B000029090909090901010101010101010100A
:1044C0001010101010101010101010020202020232
:1044D0000288888888888808080808080808080862
:1044E000080808080808080808080802020202402C
:1044F000704400001445000000000020D8000000B7
:1045000050140000EC450000D80000207824000082
:1045100060140000000003000000000000C0014023
:1045200000000000000000000000000000900040BB
:104530000104000000A000400204000000A00140AF
:104540000306000000B00140040600000000803DAA
:104550000000803D0000000000000300000000009B
:10456000000000000000000000000000000000004B
:10457000000000000000000000000000000000003B
:10458000000000000000000000000000000000002B
:10459000000000000000000000000000000000001B
:1045A000000000000000000000000000000000000B
:1045B00000000000000000000000000000000000FB
:1045C00000000000000000000000000000000000EB
:1045D00000000000000000000000000000000000DB
:0C45E00000000000000000000090D0036C
:0400000500000401F2
:00000001FF
